:0200000460009A
:10000000464346420004015600000000010303007D
:1000100000000000000000000000000001000000DF
:10002000010C0000000000000000000000000000C3
:10003000F0000000000000000000000000000000D0
:100040001000000001040700000000000000000094
:100050000000800000000000000000000000000020
:100060000000000000000000000000000000000090
:100070000000000000000000000000000000000080
:10008000EB04180A083204260000000000000000FB
:10009000050404240000000000000000000000002F
:1000A0000000000000000000000000000000000050
:1000B0000604000000000000000000000000000036
:1000C0000000000000000000000000000000000030
:1000D00020041808000000000000000000000000DC
:1000E0000000000000000000000000000000000010
:1000F0000000000000000000000000000000000000
:10010000D8041808000000000000000000000000F3
:100110000204180804200000000000000000000095
:1001200000000000000000000000000000000000CF
:10013000600400000000000000000000000000005B
:10014000C0040120000000000000000000000000CA
:10015000000000000000000000000000000000009F
:10016000000000000000000000000000000000008F
:10017000000000000000000000000000000000007F
:10018000000000000000000000000000000000006F
:10019000000000000000000000000000000000005F
:1001A000000000000000000000000000000000004F
:1001B000000000000000000000000000000000003F
:1001C000000100000010000001000000000000001D
:1001D000000001000000000000000000000000001E
:1001E000000000000000000000000000000000000F
:1001F00000000000000000000000000000000000FF
:1002000000000000000000000000000000000000EE
:1002100000000000000000000000000000000000DE
:10100000D10020410020006000000000000000002E
:1010100020100060001000600000000000000000D0
:10102000000000600000800000000000FFFFFFFFE4
:1010300000000000000000000000000000000000B0
:1010400000000000000000000000000000000000A0
:101050000000000000000000000000000000000090
:101060000000000000000000000000000000000080
:1020000000000120C1240060ED240060F124006084
:10201000E9240060E9240060E92400600000000079
:10202000000000000000000000000000F524006037
:10203000E924006000000000F9240060FD24006035
:102040000125006005250060092500600D25006060
:102050001125006015250060192500601D25006010
:102060002125006025250060292500602D250060C0
:102070003125006035250060392500603D25006070
:1020800041250060E9240060E9240060E924006043
:1020900045250060492500604D2500605125006000
:1020A00055250060592500605D25006061250060B0
:1020B00065250060692500606D2500607125006060
:1020C00075250060792500607D2500608125006010
:1020D0008525006089250060E9240060E92400600E
:1020E000E9240060E9240060E9240060E92400603C
:1020F000E9240060E9240060E9240060E92400602C
:10210000E9240060E9240060E9240060E92400601B
:10211000E9240060E9240060E9240060E92400600B
:102120007980006091250060952500609925006008
:102130009D250060E9240060E9240060E924006036
:10214000E9240060E9240060E9240060E9240060DB
:10215000E9240060E9240060E9240060E9240060CB
:10216000E9240060E9240060E9240060E9240060BB
:10217000E9240060E9240060E9240060E9240060AB
:10218000515C0060615C0060715C0060815C0060BB
:10219000915C0060A15C0060E9240060E9240060BB
:1021A000B15C0060C15C0060A1250060E9240060B2
:1021B000E9240060E9240060E9240060E92400606B
:1021C000E9240060E9240060E9240060E92400605B
:1021D000E9240060E9240060E9240060E92400604B
:1021E000E9240060E9240060E9240060E92400603B
:1021F000A5250060E9240060A9250060AD250060E8
:10220000E9240060E9240060B1250060B525006084
:10221000E9240060E9240060E9240060E92400600A
:10222000E9240060E9240060E9240060E9240060FA
:10223000E9240060E9240060E9240060E9240060EA
:10224000E9240060E9240060E9240060E9240060DA
:10225000E9240060E9240060E9240060E9240060CA
:10226000E9240060E9240060E9240060E9240060BA
:10227000E9240060E9240060E9240060E9240060AA
:10228000E9240060E9240060E9240060E92400609A
:10229000E9240060E9240060E9240060E92400608A
:1022A000E9240060E9240060E9240060E92400607A
:1022B000E9240060E9240060E9240060E92400606A
:1022C000E9240060E9240060E9240060E92400605A
:1022D000E9240060E9240060E9240060E92400604A
:1022E000E9240060E9240060E9240060E92400603A
:1022F000E9240060E9240060E9240060E92400602A
:10230000E9240060E9240060E9240060E924006019
:10231000E9240060E9240060E9240060E924006009
:10232000E9240060E9240060E9240060E9240060F9
:10233000E9240060E9240060E9240060E9240060E9
:10234000E9240060E9240060E9240060E9240060D9
:10235000E9240060E9240060E9240060E9240060C9
:10236000E9240060E9240060E9240060E9240060B9
:10237000E9240060E9240060E9240060E9240060A9
:10238000E9240060E9240060E9240060E924006099
:10239000E9240060E9240060E9240060E924006089
:1023A000E9240060E9240060E9240060E924006079
:1023B000E9240060E9240060E9240060E924006069
:1023C000E9240060E9240060E9240060E924006059
:1023D000E9240060E9240060E9240060E924006049
:1023E000E9240060E9240060E9240060E924006039
:1023F000E9240060E9240060E9240060FFFFFFFF9A
:1024000000F002F800F04CF80AA090E8000C8244BA
:102410008344AAF10107DA4501D100F041F8AFF297
:10242000090EBAE80F0013F0010F18BFFB1A43F0B2
:1024300001031847C8960100E89601000A4410F805
:10244000014B14F00F0508BF10F8015B240908BF09
:1024500010F8014B6D1E05D010F8013B6D1E01F800
:10246000013BF9D1641E03D0641E01F8015BFBD16E
:102470009142E4D370470000002300240025002689
:10248000103A28BF78C1FBD8520728BF30C148BFD7
:102490000B6070471FB50FF094FB1FBD10B510BD4A
:1024A000DFF80CD0FFF7F6FF0DF0A6FE00F095FA6E
:1024B0000000012003B4FFF7F1FF03BC00F096FA1F
:1024C00072B60548054901600A6882F30888044825
:1024D000804762B60348004708ED00E00020006036
:1024E00001C1006001240060FFF7FEBF32480047D1
:1024F00032480047324800473248004732480047D8
:1025000032480047324800473248004732480047C7
:1025100032480047324800473248004732480047B7
:1025200032480047324800473248004732480047A7
:102530003248004732480047324800473248004797
:102540003248004732480047324800473248004787
:102550003248004732480047324800473248004777
:102560003248004732480047324800473248004767
:102570003248004732480047324800473248004757
:102580003248004732480047324800473248004747
:102590003248004732480047324800473248004737
:1025A0003248004732480047324800473248004727
:1025B0003248004732480047ED240060F1240060B3
:1025C000F5240060F9240060FD240060E945006006
:1025D000E14700602948006071480060B948006028
:1025E000014900604949006091490060D949006093
:1025F000214A00603146006079460060C1460060B3
:10260000094700605147006099470060E924006075
:10261000A1710060C9710060F17100601972006001
:10262000417200606972006091720060B97200606E
:10263000A1670060B1670060C1670060D16700609A
:10264000E9240060E9240060E9240060E9240060D6
:10265000E9240060E924006039800060A180006006
:10266000E180006031810060E9240060E9240060BD
:10267000E924006009C2006031C20060E924006002
:10268000E9240060004870474402002053EA020C2D
:1026900000F069802DE9F04B4FF00006002B1FBFC2
:1026A000B3FA83F503FA05F424FA05F65E4012BF87
:1026B0001643B2FA82F502FA05F4C5F120051EBFF1
:1026C00022FA05FC44EA0C04203556EA044C4FEA91
:1026D000144418BF641C4FF000084FF000099042EA
:1026E00071EB030C39D3002919BFB1FA81F701FA54
:1026F00007F6B0FA80F700FA07F6C7F120071EBF09
:1027000020FA07FC46EA0C062037B6FBF4FCA7EBE0
:102710000507103F07F01F0BCBF120062CFA06F639
:102720000CFA0BFB44BFB3460026202FA4BF5E4625
:102730004FF0000B5BEA060C08BF4FF0010B19EBE2
:102740000B0948EB0608ABFB027C06FB02CC0BFB3B
:1027500003CCC01B71EB0C01C1E70B46024641469E
:102760004846BDE8F08B13B54FF000004FF0000174
:10277000AFF30080BDE81C407047401ECAB210F89D
:10278000011F8A4202D00029F9D10020704740EA97
:10279000010310B59B070FD1042A0DD310C808C937
:1027A000121F9C42F8D020BA19BA884201D90120E0
:1027B00010BD4FF0FF3010BD1AB1D30703D0521C2B
:1027C00007E0002010BD10F8013B11F8014B1B1B66
:1027D00007D110F8013B11F8014B1B1B01D1921ED0
:1027E000F1D1184610BD10B5431C02E010F8011BD2
:1027F00071B18107FAD14FF0013202C88C1A8C43B3
:1028000014EAC211F9D0C01A0A0603D0C01E10BDC6
:10281000C01A10BD0A0401D0801E10BD0902FCD0F0
:10282000401E10BD01B500F03EF801BD01B501F03C
:10283000FF03114643EA032242EA024200F0ACF8E9
:1028400001BD4FF0000200B513469446964620396C
:1028500022BFA0E80C50A0E80C50B1F12001BFF459
:10286000F7AF090728BFA0E80C5048BF0CC05DF8BF
:1028700004EB890028BF40F8042B08BF704748BF0D
:1028800020F8022B11F0804F18BF00F8012B704781
:1028900010B5FFF7F7FE006810BD10B50446FFF74E
:1028A000F1FE046010BD032A40F2308010F0030CEA
:1028B00000F0158011F8013BBCF1020F624498BF93
:1028C00011F801CB00F8013B38BF11F8013BA2F130
:1028D000040298BF00F801CB38BF00F8013B11F0AB
:1028E000030300F02580083AC0F0088051F8043B4B
:1028F000083A51F804CBA0E80810F5E7121D5CBFB8
:1029000051F8043B40F8043BAFF30080D20724BFEA
:1029100011F8013B11F801CB48BF11F8012B24BF7E
:1029200000F8013B00F801CB48BF00F8012B7047CD
:1029300010B5203AC0F00B80B1E81850A0E818504C
:10294000B1E81850A0E81850203ABFF4F5AF5FEA9C
:10295000027C24BFB1E81850A0E8185044BF18C941
:1029600018C0BDE810405FEA827C24BF51F8043BE8
:1029700040F8043B08BF7047D20728BF31F8023B3C
:1029800048BF11F8012B28BF20F8023B48BF00F8D0
:10299000012B70474FF000020429C0F0128010F0A4
:1029A000030C3FF450AFCCF1040CBCF1020F18BF84
:1029B00000F8012BA8BF20F8022BA1EB0C01FFF7B8
:1029C00042BF5FEAC17C24BF00F8012B00F8012B55
:1029D00048BF00F8012B7047704710B50446AFF3AD
:1029E00000802046BDE81040FFF764BD0149182073
:1029F000ABBEFEE726000200BFF35F8F4EF6245009
:102A0000CEF20000016821F480310160016F21F0F5
:102A100001010167BFF34F8FBFF36F8F7047000055
:102A2000BFF35F8F4EF62450CEF2000007210167FE
:102A3000016841F480310160BFF34F8FBFF36F8FA6
:102A400070470000000000002DE9F04F81B001F058
:102A5000FFFC48F2701AC4F20D0ADAF8500140F493
:102A60008030CAF85001DAF8500120F40030CAF87A
:102A7000500101F0F5FC002001F052FB01F07CFB5D
:102A8000012001F0F9FC4CF26009C4F20F0959F879
:102A9000600C7F2161F3070049F8600C46F6184688
:102AA000C8F200063046012101F056FC43F614102E
:102AB000C1F20040012101F04FFC0C20C4F20800DB
:102AC0000168122262F30401016000BF50F80C1C7F
:102AD000B1F1FF3FFADC4EF61420C0F200400021B5
:102AE00001F0C6FB4FF4887000F07AFF4FF4847059
:102AF00000F076FF40F2162000F072FF4FF40670EF
:102B000000F06EFF46F21848C8F2000808F57F7022
:102B1000032101F0ADFB4EF21000C4F200000021D1
:102B200001F0A6FB4FF61430C8F20000002101F0BE
:102B30009FFB4FF48A7000F053FF4FF48B7000F04E
:102B40004FFF182000F04CFF1A2000F049FF4FF40F
:102B5000867000F045FF4EF21C07C8F207073846A2
:102B6000012101F085FB40F2026000F039FF4EF6D2
:102B70002434C8F200042046022101F079FB43F21C
:102B80001C0BC8F2000B5846002101F0E5FB40F297
:102B9000046000F025FF04F5A060022101F068FB4D
:102BA0000BF58070002101F0D7FB4FF4417000F06D
:102BB00017FF4FF21400072101F05AFB42F20C04F8
:102BC000C8F2000404F5E160002101F0C5FB04F542
:102BD000C160002101F0C0FB4FF4807000F000FFE5
:102BE0004FF4817000F0FCFE4FF4827000F0F8FEAC
:102BF0004FF4837000F0F4FE4FF22865C8F2000530
:102C000005F57C70042101F033FB4046022101F000
:102C1000A3FB162000F0E4FE47F62410C8F20000E3
:102C2000032101F025FB06F50070002101F094FB63
:102C300040F2125000F0D4FE4EF22864C8F20004B4
:102C40002046032101F014FB07F10C00012101F0E3
:102C50000FFBA6F5FE70002101F07EFB40F2145040
:102C600000F0BEFE201D032101F002FB07F1100061
:102C7000012101F0FDFA301D002101F06DFB40F251
:102C8000165000F0ADFE2846032101F0F1FA4FF294
:102C90002808C8F207084046012101F0E9FA06F5C4
:102CA0000170002101F058FB40F2062000F098FE70
:102CB0004FF4027000F094FE40F20A2000F090FE03
:102CC00008F54470002101F0D3FA0BF507700021DC
:102CD00001F042FB0E2000F083FE122000F080FE87
:102CE000102000F07DFE142000F07AFE07F5017040
:102CF000012101F0BDFA46F21840C8F2000000F5CB
:102D00008160022101F028FB4FF4A36000F068FE0F
:102D10001C2000F065FE0C2000F062FE4FF48C7069
:102D200000F05EFE40F2023000F05AFE40F2063043
:102D300000F056FE40F21A5000F052FE40F20E60D3
:102D400000F04EFE07F10800002101F091FA42F276
:102D50000C07C8F2000707F5C360002101F0FCFA78
:102D600040F20E5000F03CFE05F54270012101F0EA
:102D70007FFA05F10800072101F07AFA47F21826D8
:102D8000C8F2000606F50670032101F0E5FA40F2EC
:102D9000025000F025FE04F54070012101F068FAB0
:102DA00005F54070072101F063FA06F584700321F0
:102DB00001F0D2FA3846002101F0CEFA43F678202D
:102DC000C6F2010001F000FA00201B2101F0E0F939
:102DD0000120102101F0DCF90220122101F0D8F9C4
:102DE0000320122101F0D4F900F0F2FD01F028FBDC
:102DF000DAF8000020F40040CAF80000DAF8000019
:102E000020F40000CAF800006FF0FF005AF800102C
:102E100041F400514AF8001042F21C70C6F2010061
:102E200001F046F93046032101F096FA43F61410FA
:102E3000C1F20040002101F08FFA46F61840C8F2B6
:102E40000000002101F088FA07F5C260002101F0BE
:102E500083FAD9F8000020F07000C9F80000D9F812
:102E60000000012161F30300C9F80000D9F8000057
:102E700020F46000C9F80000D9F80000032161F3D4
:102E80001440C9F80000D9F8000020F48070C9F897
:102E90000000D9F8000020F08000C9F80000D9F83F
:102EA000000020F08070C9F80000002003F038FC1A
:102EB000032003F035FC062003F032FC082003F069
:102EC0002FFC0A2003F02CFC03F00AFC4CF2140047
:102ED000C4F20A0050F8101C21F4003140F8101C14
:102EE000016821F080510160016821F0005101600A
:102EF00040F20000C2F2000046F20051C1F6CD518E
:102F0000016001B0BDE8F08F70B584B00020009082
:102F10004EF61454CEF20004216811F4003F0DD097
:102F2000BFF34F8FBFF36F8F216821F40031216011
:102F3000C4F83C02BFF34F8FBFF36F8F206810F4CB
:102F4000803F3DD000202067BFF34F8F206820F4E2
:102F500080302060BFF34F8F02A8C4F85C0201A844
:102F6000C4F85C0203A8C4F85C02BFF34F8FBFF340
:102F70006F8FE16E0391C1F34E3002904FF6004225
:102F8000CFF6FF7262EAD10EC908890743F6E07CEA
:102F90000CEA40130A46754642EA0306C4F860622A
:102FA00002F140420135F7D1421E00281046EFD110
:102FB0004FF0FF30CDE90100BFF34F8FBFF36F8FAC
:102FC000FFF71AFD1020C4F888003F20C1F200006E
:102FD000C4F88C001120C8F20000C4F8880040F248
:102FE000390CC0F2103CC4F88CC01220C6F20000AC
:102FF000C4F88800C4F88CC00130C4F888002D20C3
:10300000C0F20360C4F88C001420C4F888000CF1EE
:103010000200C4F88C001520C4F888001F20C0F2FC
:103020000330C4F88C001621C2F20001C4F88810E5
:10303000C4F88C001721C2F22001C4F888100230B5
:10304000C4F88C0040F20001C2F2200140F20000FE
:10305000C2F22200421A40F20003C2F220038B4265
:10306000104608BF0020009E20FA06F60098022EA7
:103070000CD300BF013000908B42104608BF0020E7
:10308000009E20FA06F60098012EF3D808B3B1FB93
:10309000F2F000FB121000286FD18B4208BF002213
:1030A0000098012303FA00F082426ED100980428B0
:1030B00073D9192060F30401C4F8881000981F30F8
:1030C0003E2101EA400040F0427040F00100C4F8A7
:1030D0008C001A20C4F20000C4F88800ACF10E0085
:1030E000C4F88C00FFF79CFC206810F4803F2BD1C3
:1030F00000202067BFF34F8FE06E4FF60041CFF600
:10310000FF7161EAD00EC0F34E31C008800743F66C
:10311000E07C00BF0CEA41130246754642EA030612
:10312000C4F84C6202F140420135F7D14A1E002931
:103130001146EFD1BFF34F8F206840F480302060FC
:10314000BFF34F8FBFF36F8F206810F4003F12D191
:10315000BFF34F8FBFF36F8F0020C4F83C02BFF363
:103160004F8FBFF36F8F206840F400302060BFF3B3
:103170004F8FBFF36F8F04B070BD15A042F636417C
:10318000C6F20101BD220AF09BFF08A042F63641BB
:10319000C6F20101BE220AF093FF0BA042F63641AF
:1031A000C6F20101BF220AF08BFF00BF73697A6586
:1031B000203D3D202875696E7433325F74292831B3
:1031C000203C3C206929000069203E3D203500005C
:1031D00021286E6F6E436163686553746172742059
:1031E000252073697A65290010B500F0E1FC18B15B
:1031F00000F0E6FC04460BE00D20C0F2100000F0E9
:1032000077FD4AF6AB21CAF6AA21A0FB01018C0882
:1032100000F01EFC0130B4FBF0F010BD0000000017
:103220004CF20401C4F20A010A6822F400230028C7
:1032300018BF42F400230B6070470000000000003C
:10324000FFF702BC0000000000F00EB80000000014
:1032500080B5FFF7C9FF034601204FF4E131012299
:10326000BDE8804001F040BD70B582B000F0C0FB09
:103270000025009548F2D404C4F21F042046022120
:103280000022002303F040FA0095201D02210022B5
:10329000002303F039FA009504F1140006210022FE
:1032A000002303F031FA0126009604F1280004F50A
:1032B00057720321022303F027FA009604F12C0031
:1032C00004F55E720321012303F01EFA009604F157
:1032D000300004F55F720321012303F015FA009614
:1032E00004F1340003210022002303F00DFA0096BC
:1032F00004F13C0004F559720321012303F004FAA0
:10330000009504F1440000210022002303F0FCF9A1
:10331000009604F1600004F52A720021012303F0F5
:10332000F3F9009604F1640004F52B7200210123E7
:1033300003F0EAF9009504F168000021002200235F
:1033400003F0E2F9009504F16C0000210022002353
:1033500003F0DAF9009504F1700000210022002347
:1033600003F0D2F9009504F174000021002200233B
:1033700003F0CAF9009504F178000021002200232F
:1033800003F0C2F9009504F17C0000210022002323
:1033900003F0BAF9009504F1800005210022002312
:1033A00003F0B2F9009504F19400052100220023F6
:1033B00003F0AAF904F5BA7041F2B00103F09CF9E8
:1033C00004F5BC7041F2B00103F096F904F5C47045
:1033D00041F2B00103F090F904F5CE7041F2B00172
:1033E00003F08AF904F5D07041F2B00103F084F9DA
:1033F00004F5D27041F2B00103F07EF904F5D47007
:1034000041F2B00103F078F904F5D87041F2B0014F
:1034100003F072F904F5DC7047F2A101C0F201017A
:1034200003F06AF904F5EA704DF6B00103F064F9AF
:1034300004F5EC704DF6B00103F05EF904F5EE70A2
:1034400047F28905C0F20105294603F055F904F554
:10345000F070294603F050F904F5F270294603F0A4
:103460004BF904F5F470A5F5405103F045F904F566
:10347000F670294603F040F904F5F870294603F088
:103480003BF904F5FA70294603F036F904F50270A9
:1034900041F2B00102B0BDE8704003F02DB9000068
:1034A00070B582B00D46044642F62C60C2F20000B0
:1034B00000210170642143F21952C6F20002C0E9F2
:1034C0000114C26045610020C1F20330009042F651
:1034D0008856C2F200066946304602F0E5FD3046E5
:1034E000042102F0C5FE4AF26951C6F200013046DD
:1034F000002202F055FE0DF10701304602F0B0FD4A
:1035000030B92CB19DF8070010B901202946A04719
:1035100002B070BD0000000080B582B042F6885055
:10352000C2F200000DF1070102F09AFD9DF80710AC
:103530000843B0FA80F0400902B080BD00000000EE
:1035400080B5002842F61C60C2F200000CBF0021CA
:10355000012102F069FE80BD80B582B00120C1F674
:103560000300019042F61C60C2F2000001A902F0C3
:103570009BFD02B080BD0000F0B581B01D46144631
:103580000E46074600283FD042F69860C2F200007F
:10359000202140F2B822C2F20002C0E90B21012131
:1035A00080F8801038600021C4F22C01016000F026
:1035B0007FF8386843F68051C0F6CD31416043F260
:1035C0004150C6F20000786042F62C60C2F2000062
:1035D00043F23961C6F2000140F21002C2F2000269
:1035E0004EF20013C0F2F553C7E90412C7E906030F
:1035F000FFF7B2FF30462946FFF752FF204601B0E1
:10360000BDE8F0400AF040BD02A004A1E3220AF0A8
:1036100057FD00BF6361726400000000626F617259
:10362000642F73646D6D635F636F6E6669672E638D
:103630000000000000000000F0B581B04EF2011162
:10364000C0F2F551C126884238BF81264FF2810170
:10365000C0F2FA21884238BF01263827C0F201079C
:1036600007F5E04046EA000448F2B025C4F21F0521
:1036700005F10800214603F043F846EA070105F189
:103680000C0003F03DF805F11000214603F038F876
:1036900005F11400214603F033F82846214603F0D3
:1036A0002FF8281D214601B0BDE8F04003F028B8EE
:1036B00080B543F67820C6F2010000F085FD0020B9
:1036C000182100F065FD00F007FE00F079FE43F6DA
:1036D0008050C0F6CD3080BD81B2B1F5E06F3FBF04
:1036E000010A4CF26802C4F20F0202EB81023FBFF2
:1036F00000F01F000321814010463CBF00220AF069
:103700001BBC04A042F66241C6F201014FF4A36261
:103710000AF0D6FC696E646578203C3D2036554C35
:1037200000000000000000000AF012BC00000000D1
:1037300082B2B2F5E06F3FBF00F01F020323934057
:1037400001FA02F23FBF000A4CF26801C4F20F0115
:1037500001EB80003CBF19460AF00ABC02A006A19A
:103760004FF4A3620AF0ACFC696E646578203C3DBE
:103770002036554C00000000647269766572732F24
:1037800066736C5F636C6F636B2E680000000000F3
:1037900082B2B2F5E06F3FBF00F01F0203239340F7
:1037A00001FA02F23FBF000A4CF26801C4F20F01B5
:1037B00001EB80003CBF19460AF0E6BB02A006A15F
:1037C0004FF4A3620AF07CFC696E646578203C3D8E
:1037D0002036554C00000000647269766572732FC4
:1037E00066736C5F636C6F636B2E68000000000093
:1037F00081B2B1F5E06F3FBF010A4CF26802C4F23A
:103800000F0202EB81023FBF00F01F000321814045
:1038100010463CBF0A460AF0C3BB03A006A14FF402
:10382000A3620AF04DFC00BF696E646578203C3DE0
:103830002036554C00000000647269766572732F63
:1038400066736C5F636C6F636B2E68000000000032
:1038500082B2B2F5E06F3FBF00F01F020323934036
:1038600001FA02F23FBF000A4CF26801C4F20F01F4
:1038700001EB80003CBF19460AF09EBB02A006A1E6
:103880004FF4A3620AF01CFC696E646578203C3D2D
:103890002036554C00000000647269766572732F03
:1038A00066736C5F636C6F636B2E680000000000D2
:1038B00082B2B2F5E06F3FBF00F01F0203239340D6
:1038C00001FA02F23FBF000A4CF26801C4F20F0194
:1038D00001EB80003CBF19460AF07ABB02A006A1AA
:1038E0004FF4A3620AF0ECFB696E646578203C3DFE
:1038F0002036554C00000000647269766572732FA3
:1039000066736C5F636C6F636B2E68000000000071
:1039100082B2B2F5E06F3FBF00F01F020323934075
:1039200001FA02F23FBF000A4CF26801C4F20F0133
:1039300001EB80003CBF19460AF056BB02A006A16D
:103940004FF4A3620AF0BCFB696E646578203C3DCD
:103950002036554C00000000647269766572732F42
:1039600066736C5F636C6F636B2E68000000000011
:1039700082B2B2F5E06F3FBF00F01F020323934015
:1039800001FA02F23FBF000A4CF26801C4F20F01D3
:1039900001EB80003CBF19460AF032BB02A006A131
:1039A0004FF4A3620AF08CFB696E646578203C3D9D
:1039B0002036554C00000000647269766572732FE2
:1039C00066736C5F636C6F636B2E680000000000B1
:1039D00048F27000C4F20D004FF48051016070474E
:1039E000FFF77ABE000000000021FFF7C1BF000012
:1039F000FFF79ABE000000000321FFF799BE000008
:103A00000321FFF7C5BE0000FFF7F2BE0000000073
:103A10000321FFF71DBF00000321FFF749BF00008E
:103A20000321FFF775BF00000321FFF7A1BF0000CE
:103A300080B500F005F94CF21401C4F20F010968D9
:103A4000C1F382210131B0FBF1F080BD0000000024
:103A50004CF22400C4F20F00006800F03F007047F1
:103A600080B5014600201B2988BF80BDDFE801F03A
:103A70000E0E12161A1E22252C31363B40494E538B
:103A8000585D666D757E822424242486BDE88040BE
:103A9000FFF7CEBFBDE8804000F016BABDE8804019
:103AA00000F076B8BDE8804000F0B2B8BDE88040D4
:103AB00000F09AB84FF4004080BD0D20C0F2100015
:103AC000BDE8804000F014B90020BDE8804000F05F
:103AD0004FBA0120BDE8804000F04ABA0220BDE89C
:103AE000804000F045BA0320BDE8804000F040BAB5
:103AF0000D20C0F2100000F50010BDE8804000F07D
:103B0000F7B80020BDE8804000F0FEB90120BDE814
:103B1000804000F0F9B90220BDE8804000F0F4B91F
:103B20000320BDE8804000F0EFB90D20C0F2100086
:103B300000F55000BDE8804000F0DAB81520C0F272
:103B4000E000BDE8804000F0D3B81520C0F2E000EE
:103B50000130BDE8804000F0CBB80D20C0F210006D
:103B600000F5C000BDE8804000F0C2B8BDE880406C
:103B700000F096B900F094F9C00880BD00F090F90B
:103B80004AF6AB21CAF6AA21A0FB0101880880BD34
:103B900080B5FFF74DFF4CF21401C4F20F01096824
:103BA000C1F301210131B0FBF1F080BD0000000044
:103BB0004CF22400C4F20F000068C0F3801070477C
:103BC00048F27020C4F20D00006810F0100F01BF21
:103BD00042F60C50C2F200000068704743F20060E9
:103BE000C0F26E107047000048F27020C4F20D0061
:103BF000006810F0100F01BF42F60C50C2F2000036
:103C00000068704743F20060C0F26E107047000019
:103C100010B54CF21C04C4F20F04206810F0400FE1
:103C200002D1FFF7B5FF01E0FFF7DEFF216801F0E9
:103C30003F010131B0FBF1F010BD000000000000B9
:103C400010B54CF21404C4F20F042168606811F03E
:103C5000007F13D1C0F38140012819D002281CD065
:103C6000032802BF46F20050C1F6CD5010BD0D2012
:103C7000C0F23000BDE8104000F03AB8C0F30130A7
:103C800001280FD0022810D0032812D1002017E0FD
:103C90000320BDE8104000F06BB90320BDE81040E0
:103CA00000F032B9FFF7A0FF0AE00D20C0F23000AB
:103CB00004E00D20C0F23000A0F5001000F018F86C
:103CC0002168C1F3C2610131B0FBF1F010BD000009
:103CD000000CD821C0F2040161F31F30006810F419
:103CE000404F08BFFFF780BF002070470000000072
:103CF000B0B5054600F0ACFA002802BF002420460B
:103D0000B0BD2846FFF7E4FF0446284600F094FAC9
:103D1000002855D10C20C0F2E00085423ADC0D208D
:103D2000C0F2100085424DD00D20C0F23000854217
:103D300061D00D20C0F27000854240D148F2700081
:103D4000C4F20D000168026900EE104A036AB8EE81
:103D5000400B01EE102AB8EE411B20EE010B01EEE4
:103D6000103AB8EE411B80EE010BBCEEC00B10EE1A
:103D7000102A01F07F0101FB0424016801F4C01145
:103D8000B1F5801F63D0B1F5002F5FD0002972D14B
:103D9000A4085CE00D20C0F2E00085421FD0152091
:103DA000C0F2E00085424BD01620C0F2E000854210
:103DB00001BF46F20054C1F6CD542046B0BD0024E8
:103DC0002046B0BD48F27000C4F20D0050F8600CFF
:103DD00000F0020040F0140044432046B0BD48F219
:103DE0007000C4F20D00006F00F0030026A151F82E
:103DF00020402046B0BD48F27000C4F20D0050F8DB
:103E0000201C50F8102C00EE104A01EE101AB8EEEB
:103E1000400BB8EE411B02EE102A20EE010BB8EE6B
:103E2000421B50F8400C80EE010B1421BCEEC00B7D
:103E300060F3410110EE100A01FB04042046B0BDFE
:103E400047F64004C0F27D142046B0BD6408D0F8A7
:103E5000001148F20000C0F280000140B1F5004FAF
:103E600006D0814202BFA4082046B0BD2046B0BDA6
:103E700064082046B0BD08A042F66B61C6F201019D
:103E80004FF454720AF01CF940787D0180F0FA0278
:103E900000E1F5054059730766616C736500000029
:103EA0004CF20C00C4F20F00006810F0010F1EBFAE
:103EB00043F20060C0F26E1070470D20C0F2100097
:103EC000FFF716BF0000000010B54CF21404C4F256
:103ED0000F04206810F0400F02D1FFF7B1FE0AE096
:103EE000206810F0800F03D1022000F00DF802E0EE
:103EF000012000F03DF82168C1F302410131B0FB1F
:103F0000F1F010BD0000000010B504460D20C0F215
:103F10003000FFF7EDFE032C84BF002010BD1221FE
:103F2000A0FB0101DFE804F00216080F48F20012BE
:103F3000C4F20D02126813E048F20012C4F20D023E
:103F40001268120C0CE048F20012C4F20D02126862
:103F5000120E05E048F20012C4F20D021268120AB5
:103F600002F03F020023FEF791FB10BD00000000AD
:103F700010B504460D20C0F21000FFF7B9FE032C67
:103F800084BF002010BD1221A0FB0101DFE804F076
:103F90000216080F48F2F002C4F20D02126813E094
:103FA00048F2F002C4F20D021268120C0CE048F262
:103FB000F002C4F20D021268120E05E048F2F0029F
:103FC000C4F20D021268120A02F03F020023FEF74B
:103FD0005DFB10BD0000000080B548F27001C4F226
:103FE0000D010A6822F4E032037B03F0030342EA86
:103FF000833242F480320A60426822F040420A6111
:10400000826822F040420A620A6843F27F039A43C0
:104010000378407803F07F0342EA030C02384FEA4A
:104020007003072B06D811A050F823E017A050F812
:10403000233003E04FF0000E4FF48113D1F800015C
:1040400047F6FF72CFF67F72104040EA0E00C1F8CB
:1040500000014CEA030008600868B0F1FF3FFBDC98
:10406000086820F48030086080BD00BF00000000B8
:104070000080800000000000008080000000000040
:104080000000000000000000008080000020080008
:104090000020100000201000002008000020100068
:1040A0000020100000201000002000000000000090
:1040B00080B590F803C048F2E001C4F20D010B682E
:1040C00023F4E033027902F0030243EA823242F43D
:1040D00080320A60027890F801E080780CF00303E7
:1040E000002A18BF43F40053002818BF43F40013FC
:1040F000BEF1000F18BF43F48003086841F20302C9
:1041000090431843086000BF0868B0F1FF3FFBDC34
:10411000086820F48030086080BD000000000000C6
:10412000C8B948F25810C4F20D004FF08041016048
:10413000D0F8181111F4803FFAD04FF4803140F8D4
:10414000041C00BF50F8081C11F4004FFAD04FF4C3
:1041500080310160704704A042F66B61C6F2010134
:10416000BF2209F0ADFF00BF2162797061737358FF
:1041700074616C4F7363000048F27020C4F20D004C
:10418000016841F00101016070470000000000007B
:1041900080B5C000802202FA00FEBF23834048F2AF
:1041A000001CC4F20D0CDCF800209A4342EA0E0316
:1041B000CCF8003001F03F0101FA00F01043CCF8D8
:1041C000000080BD0000000048F23001C4F20D0183
:1041D0000A6822F4E032037B03F0030342EA8332ED
:1041E00042F480320A600A6843F201039A4303787A
:1041F00003F001031A4342F400520A60426822F0BD
:1042000040420A62826822F040420A63027C438A8A
:104210006FF3DF3362F3CF33C08943EA00400861B4
:104220000868B0F1FF3FFBDC086820F480300860CC
:104230007047000000000000000CD821C0F204010B
:1042400061F31F300068C0F30040704700000000B9
:1042500000F01F01012202FA01F1000CD822C0F285
:10426000040262F31F300068084018BF0120704745
:10427000B0B5C0F30425C0F34C3303FA05FC40F697
:10428000C07EC0F2400E04466EF31F24226822EA6C
:104290000C021940A94011432160B0F1044F0FD224
:1042A000810E202908BFB0BD4CF20000C4F20F00FF
:1042B000012202FA01F100BF826C0A42FCD1B0BDBA
:1042C00042F64440C6F2010042F66241C6F20101E4
:1042D00040F2F64209F0F4FE4CF22400C4F20F0062
:1042E0000168012262F3CD210160704700000000E7
:1042F000B0B5C0F30425C0F34C3303FA05FC40F617
:10430000C07EC0F2400E04466EF31F24226822EAEB
:104310000C021940A94011432160B0F1044F0FD2A3
:10432000810E202908BFB0BD4CF20000C4F20F007E
:10433000012202FA01F100BF826C0A42FCD1B0BD39
:1043400042F64440C6F2010042F66241C6F2010163
:1043500040F2F64209F0B4FEB0B5C0F30425C0F354
:104360004C3303FA05FC40F6C07EC0F2400E044612
:104370006EF31F24226822EA0C021940A94011435F
:104380002160B0F1044F0FD2810E202908BFB0BDCB
:104390004CF20000C4F20F00012202FA01F100BF4A
:1043A000826C0A42FCD1B0BD42F64440C6F2010024
:1043B00042F66241C6F2010140F2C24209F080FEBB
:1043C0004CF21C00C4F20F00016841F4803101601E
:1043D0007047000000000000B0B5C0F30425C0F332
:1043E0004C3303FA05FC40F6C07EC0F2400E044692
:1043F0006EF31F24226822EA0C021940A9401143DF
:104400002160B0F1044F0FD2810E202908BFB0BD4A
:104410004CF20000C4F20F00012202FA01F100BFC9
:10442000826C0A42FCD1B0BD42F64440C6F20100A3
:1044300042F66241C6F2010140F2C24209F040FE7A
:1044400048F27400C4F20D004FF4803101607047EF
:1044500042F64C20C2F200004FF400410160704768
:1044600042F60C50C2F2000043F20061C0F26E113D
:10447000016070470000000048F27421C4F20D0191
:1044800000284FF0100014BF48600860704700001B
:1044900000281EBF0168002901F00EBD42F67640DB
:1044A000C6F2010042F6C841C6F20101332209F00A
:1044B00007FE00000000000080B584B002920122D7
:1044C0008DF80C2001938DF80D1001A901F06CFFFF
:1044D00004B080BD0000000080B586B0DDF820C0CB
:1044E000CDF804C04FF0000C8DF816C08DF81510F3
:1044F00004928DF81430CDF80CC00999029101A9ED
:1045000001F08AFF06B080BD00281EBF00290160AF
:1045100001F0D6BC03A042F6C841C6F20101232235
:1045200009F0CEFD28636F6E66696720213D204E3D
:10453000554C4C29202626202868616E646C652025
:10454000213D204E554C4C29000000000000000089
:1045500000281CBF0368002B0AD142F67640C6F241
:10456000010042F6C841C6F20101732209F0A8FD1C
:10457000652A0AD2436883B1DB680B40DB0518BFAC
:1045800001F0A2BC43F6D010704709A042F6C84122
:10459000C6F20101742209F093FD42F6A840C6F26A
:1045A000010042F6C841C6F20101752209F088FDFA
:1045B000766F6C756D65203C3D20434F4445435FED
:1045C000564F4C554D455F4D41585F56414C5545F2
:1045D000000000000000000002F0B2B8000000007F
:1045E00002F0C6B80000000010B548F20004C4F2A2
:1045F0000E042046002100F0A7FD10F0040F06D0A5
:1046000042F69850C2F20000006800F025FE2046F5
:10461000102100F099FD10F0040F06D042F69850DA
:10462000C2F20000006C00F017FEBFF34F8F10BD08
:1046300010B548F20004C4F20E0420460A2100F02E
:1046400083FD10F0040F06D042F69850C2F200002D
:10465000806A00F001FE20461A2100F075FD10F07E
:10466000040F06D042F69850C2F20000806E00F0AF
:10467000F3FDBFF34F8F10BD10B548F20004C4F234
:104680000E0420460B2100F05FFD10F0040F06D051
:1046900042F69850C2F20000C06A00F0DDFD2046EC
:1046A0001B2100F051FD10F0040F06D042F6985087
:1046B000C2F20000C06E00F0CFFDBFF34F8F10BDFF
:1046C00010B548F20004C4F20E0420460C2100F09C
:1046D0003BFD10F0040F06D042F69850C2F20000E5
:1046E000006B00F0B9FD20461C2100F02DFD10F0FC
:1046F000040F06D042F69850C2F20000006F00F09E
:10470000ABFDBFF34F8F10BD10B548F20004C4F2EB
:104710000E0420460D2100F017FD10F0040F06D006
:1047200042F69850C2F20000406B00F095FD204622
:104730001D2100F009FD10F0040F06D042F698503C
:10474000C2F20000406F00F087FDBFF34F8F10BD35
:1047500010B548F20004C4F20E0420460E2100F009
:10476000F3FC10F0040F06D042F69850C2F200009D
:10477000806B00F071FD20461E2100F0E5FC10F07A
:10478000040F06D042F69850C2F20000806F00F08D
:1047900063FDBFF34F8F10BD10B548F20004C4F2A3
:1047A0000E0420460F2100F0CFFC10F0040F06D0BD
:1047B00042F69850C2F20000C06B00F04DFD20465A
:1047C0001F2100F0C1FC10F0040F06D042F69850F3
:1047D000C2F20000C06F00F03FFDBFF34F8F10BD6D
:1047E00010B548F20004C4F20E042046012100F086
:1047F000ABFC10F0040F06D042F69850C2F2000055
:10480000406800F029FD2046112100F09DFC10F0C9
:10481000040F06D042F69850C2F20000406C00F03F
:104820001BFDBFF34F8F10BD10B548F20004C4F25A
:104830000E042046022100F087FC10F0040F06D081
:1048400042F69850C2F20000806800F005FD204654
:10485000122100F079FC10F0040F06D042F69850B7
:10486000C2F20000806C00F0F7FCBFF34F8F10BD68
:1048700010B548F20004C4F20E042046032100F0F3
:1048800063FC10F0040F06D042F69850C2F200000C
:10489000C06800F0E1FC2046132100F055FC10F048
:1048A000040F06D042F69850C2F20000C06C00F02F
:1048B000D3FCBFF34F8F10BD10B548F20004C4F213
:1048C0000E042046042100F03FFC10F0040F06D037
:1048D00042F69850C2F20000006900F0BDFC20468C
:1048E000142100F031FC10F0040F06D042F698506D
:1048F000C2F20000006D00F0AFFCBFF34F8F10BD9F
:1049000010B548F20004C4F20E042046052100F060
:104910001BFC10F0040F06D042F69850C2F20000C3
:10492000406900F099FC2046152100F00DFC10F0C4
:10493000040F06D042F69850C2F20000406D00F01D
:104940008BFCBFF34F8F10BD10B548F20004C4F2CA
:104950000E042046062100F0F7FB10F0040F06D0ED
:1049600042F69850C2F20000806900F075FC2046C3
:10497000162100F0E9FB10F0040F06D042F6985023
:10498000C2F20000806D00F067FCBFF34F8F10BDD6
:1049900010B548F20004C4F20E042046072100F0CE
:1049A000D3FB10F0040F06D042F69850C2F200007C
:1049B000C06900F051FC2046172100F0C5FB10F043
:1049C000040F06D042F69850C2F20000C06D00F00D
:1049D00043FCBFF34F8F10BD10B548F20004C4F282
:1049E0000E042046082100F0AFFB10F0040F06D0A3
:1049F00042F69850C2F20000006A00F02DFC2046FA
:104A0000182100F0A1FB10F0040F06D042F69850D8
:104A1000C2F20000006E00F01FFCBFF34F8F10BD0C
:104A200010B548F20004C4F20E042046092100F03B
:104A30008BFB10F0040F06D042F69850C2F2000033
:104A4000406A00F009FC2046192100F07DFB10F0BF
:104A5000040F06D042F69850C2F20000406E00F0FB
:104A6000FBFBBFF34F8F10BD4CF20001C4F20E01EF
:104A700051F8202042F0004241F820207047000009
:104A80004CF20001C4F20E01884204BF00207047BE
:104A900002A00CA13B2209F013FB00BF696E7374E6
:104AA000616E6365203C2041525241595F53495A1F
:104AB0004528735F646D616D757842617365732914
:104AC00000000000647269766572732F66736C5F14
:104AD000646D616D75782E630000000000000000B9
:104AE00080B5FFF7CDFF40F20650BDE88040FEF7ED
:104AF00083BF0000000000004CF20002C4F20E026E
:104B000052F8203061F3060342F82030704700006D
:104B1000F0B581B02DED068B82B01446054600201D
:104B20002F4607F8010B91ED008BB5EE408BF1EEAF
:104B300010FA03D13020387001268FE06846B0EEBD
:104B4000480B0CF023FA3CB1B2EE041B204600BF28
:104B5000013820EE010BFBD1B5EEC08BF1EE10FA5F
:104B600019DABEEE003B01EE104AB2EE042BB8EEAD
:104B7000411B30EE038BB0EE420B0CF069FAB1EE44
:104B8000400BB4EEC08BF1EE10FA1FDC9DED000B74
:104B9000BFEE001B16E0B6EE003B01EE104AB2EE8F
:104BA000042BB8EE411B30EE038BB0EE420B0CF041
:104BB0004FFAB4EEC08BF1EE10FA07DB9DED000B5F
:104BC000B7EE001B30EE010B8DED000BF4B1661C4F
:104BD000B2EE049B88EE09AB51EC1A0B0CF0FEFF11
:104BE0000CF050FF41EC100B00EE498BBDEEC80BF2
:104BF00010EE100A002848BF4042303007F8010B81
:104C0000013CB0EE4A8BE5D1AF1900E001262E2021
:104C100007F8010B9DED000BBDEEC00B10EE101A56
:104C2000C9B146F26760C6F2666000BF51FB00F290
:104C3000931003EBD27202EB8203A1EB4303002B30
:104C400048BF5B42303307F8013B01360931122976
:104C50001146EBD802E0302038700136304602B001
:104C6000BDEC068B01B0F0BDB0B54FF0000C00F804
:104C700001CBD1F800C0BCF1000F17D04FF0570E98
:104C8000002B18BF4FF0370E002100BFBCFBF2F322
:104C900003FB12C40A2C754638BF30252C444454FB
:104CA000013194459C46F1D20846B0BD30210170D7
:104CB00001210846B0BD000080B582B042F64460D4
:104CC000C2F20000017C51B1C3680DF1070101225D
:104CD0009847002802BF9DF8070002B080BD4FF042
:104CE000FF3002B080BD0000B0B586B0012A20D1EF
:104CF00042F64465C2F200052A74CDE90131002173
:104D0000C0F2011103910024ADF810408DF812009B
:104D1000ADF8134001A9284601F0C6FB46F27960C0
:104D2000C6F2000046F20961C6F20001C5E90201BF
:104D300000E00124204606B0B0BD000000000000E5
:104D400083B080B581B00DF10C0C8CE80E0003A986
:104D5000009100F051F901B0BDE8804003B0704708
:104D60002DE9F04F91B08B468046002007900590CA
:104D70000DF1230A02E000BF09F1020808F1010960
:104D800009E000BF00F024F907980130079008F10E
:104D9000010809F1010919F8010C002800F001814E
:104DA0002528EFD119F80109A0F13001C9B2002678
:104DB000092910D806EB8601490051FA80F0A0F1CC
:104DC000300608F1010998F80200A0F13001C9B2DB
:104DD0000A29C846EED3494611F8010F2E281BD1E7
:104DE00099F80200A0F13002D2B2092A16D809F1CE
:104DF0000301002202EB8202520052FA80F0A0F17D
:104E0000300211F8010BA0F13003DBB20A2BF1D311
:104E1000A1F1020904E000BF062201E00022894658
:104E200099F80170A7F14600322800F24B80012466
:104E30000025DFE800F01A474747474747474747FD
:104E400047474747474747474947474747474747F0
:104E50004747575C36471A474736474747474764EF
:104E60008747476A473147474A000BF1070020F060
:104E7000070494ED000B8DED020B504602A9FFF7DD
:104E800047FE804604F1080B0125622F29D0702FC0
:104E900057D0752F2C467CD1DBF8000005900A22F4
:104EA00059E05BF8040B0690504606A90A2201233C
:104EB000FFF7DAFE0446314607AA00F079F80AEB5C
:104EC000040056E0384614E001255BF8040B059019
:104ED000504605A910222B46FFF7C6FE8046622FDA
:104EE000D5D12C46DBF800000590022233E05BF8B8
:104EF000040B00F06DF80798013007903CE7DBF8F1
:104F0000000005900822012425E05BF8044B002CEA
:104F10003FF432AF2046FDF766FC314607AA00F0A9
:104F200047F8207800283FF427AF0134C0B200F0E2
:104F30004FF807980130079014F8010B0028F5D1BD
:104F40001AE72C46DBF80000019005A801A904220D
:104F5000FDF768FC1022504605A92346FFF784FEA2
:104F60000446314607AA00F023F80AEB04000BF1CF
:104F7000040B017800293FF4FFAE441EC8B200F0D4
:104F800027F807980130079014F801190029F5D186
:104F9000F2E64046314607AA00F00AF80AEB08009C
:104FA000E7E7079811B0BDE8F08F000000000000AF
:104FB000B0B514468842A8BFB0BD0D1A202000F03D
:104FC00007F8206801302060013DF7D1B0BD000036
:104FD00010B582B0019042F64460C2F20000017C3C
:104FE00029B1836801A901240122984701E04FF00B
:104FF000FF34204602B010BD42F64462C2F2000205
:10500000127C002A18BFFFF7ABBE4FF0FF3070478D
:105010000046401E0028FCD1704700000000000040
:10502000EFF3108072B67047EFF3108072B67047DE
:10503000EFF3108072B670478168027C02F01F03A4
:105040008B7601EB421241F21C030021D15241F256
:105050001803D15041F21603D152027C836803EB4E
:10506000421241F21E03D152C268002A1FBF012220
:1050700042748174C1747047F0B581B015460E4614
:105080000446002848D0202D52D200272046002177
:105090001822FDF7CBFBA6602574304600F090F88F
:1050A000064600F0B1F805EB401042F69851C2F206
:1050B000000141F8204042F26870C6F2010000EBA6
:1050C000861030F9150000F0AFFD207CA16801EBDF
:1050D00040104FF48051475041F20401475241F2D1
:1050E0000601475241F20801475041F20C01475076
:1050F00041F21001475041F21401475241F21601AA
:10510000475241F21801475041F21C01475241F207
:105110001E01475201B0F0BD42F6E140C6F2010067
:1051200043F28801C6F201014FF4537208F0C8FF40
:1051300042F63870C6F2010043F28801C6F201015E
:1051400040F24D3208F0BCFF20293FBF00EB411276
:1051500041F21C03D25AC36A3FBFCB40C2F3C01214
:1051600063F34102406A3FBFC84000F0010042EAD9
:105170008000704742F63870C6F2010043F28801A1
:10518000C6F2010140F2013208F09AFF000000006F
:1051900010B5044640B1204600210422FDF746FB2D
:1051A0004FF48070206010BD42F67870C6F20100A6
:1051B00043F28801C6F20101AE2208F081FF00002F
:1051C00048F20001C4F20E01884204BF002070477B
:1051D00003A043F28801C6F201014C2208F070FFDF
:1051E000696E7374616E6365203C2041525241596F
:1051F0005F53495A4528735F65646D614261736509
:10520000732900000000000010B5044648F20000B9
:10521000C4F20E00FFF7D4FFC0B2A0429CBF201A18
:1052200010BD04A043F28801C6F2010140F23A32F7
:1052300008F046FF7374617274496E7374616E6333
:10524000654E756D203C3D20696E7374616E6365BB
:10525000000000000000000070B5044600285FD088
:10526000A168227CCA7701EB421041F21C03C65AA6
:1052700006F08006E568DDB1034441F218054059A7
:10528000B3F800C0E568401B40091EB9002808BFFC
:10529000207D0138637CC5B29D4219D11CF01001FC
:1052A000E17C227D18BF91421FD194F913301DE09B
:1052B000D4F800C0BCF1000F08BF70BD6168002EBB
:1052C00018BF0126204632460023BDE870406047E3
:1052D00094F91130EB1AB3F1FF3FDCBF94F914508D
:1052E0002B44002E18BF0A7700E000236074E07C96
:1052F000C01AE074256835B16168002E324618BFC7
:1053000001222046A84756B1207CA16801EB40123B
:1053100041F21C03D25A12F0100F18BF087770BD6B
:1053200042F6E140C6F2010043F28801C6F20101F3
:105330004FF4AF6208F0C4FEB0B50D46044601B3A9
:105340002046FFF73DFF40F20650FEF759FB0020D4
:10535000E0604FF0FF306062E062206829786A7890
:10536000AB78ED789B0043EA021242EA811141EAF0
:10537000450141F08001C9B220F0D6000843206009
:10538000B0BD42F67870C6F2010043F28801C6F261
:1053900001017A2208F094FE202948D2002A51D037
:1053A000D30601BF00EB411011684FF48053C15088
:1053B00001BF918841F20403C152D18801BF41F27B
:1053C0000603C152916841F2080301BFC150D16880
:1053D00041F20C03C15001BF116941F21003C150E9
:1053E000918A01BF41F21403C152D18A41F21603DE
:1053F00001BFC152916941F21803C15001BF41F28E
:105400001C0100234352938B01BF4352D18B41F2C5
:105410001E02815208BF704743F23500C6F20100F8
:1054200043F28801C6F201015C2208F049FE42F60F
:105430003870C6F2010043F28801C6F201015A2217
:1054400008F03EFE42F66C70C6F2010043F288019D
:10545000C6F201015B2208F033FE000000000000EC
:1054600098B1CB0601BF012343740023C37401BF6D
:105470004375C160027570470AA043F28801C6F205
:10548000010140F2833208F01BFE42F6E140C6F211
:10549000010043F28801C6F2010140F2823208F0B5
:1054A0000FFE00BF282875696E7433325F7429744B
:1054B0006364506F6F6C2026203078314655292068
:1054C0003D3D2030550000002DE9F04F81B0984659
:1054D00016460F46054600283FD0002F49D0DDF87C
:1054E0002890B9F1000F4DD066F01F00711E0142E7
:1054F00051D1DDF82CB06BF01F00ABF1010101427E
:1055000055D1DDE90DA0B0FBFAF404FB1A00002828
:1055100059D1B7FBF6F000FB167000285CD1B9FB3F
:10552000FBF000FB1B9000285FD1284600211822C9
:10553000FDF77CF9C5E90079C5E904A4304600F01F
:105540002FFB2872584600F02BFB68720C98A8813C
:10555000A5F80A8001B0BDE8F08F42F67870C6F277
:10556000010043F28801C6F201014FF47C7208F099
:10557000A7FD41A043F28801C6F2010140F2F132D9
:1055800008F09EFD37A043F28801C6F2010140F207
:10559000F23208F095FD42F69860C6F2010043F23F
:1055A0008801C6F2010140F2F33208F089FD42F6AB
:1055B000E660C6F2010043F28801C6F201014FF431
:1055C0007D7208F07DFD0FA043F28801C6F2010153
:1055D00040F2F53208F074FD15A043F28801C6F2DE
:1055E000010140F2F63208F06BFD43F25300C6F2BF
:1055F000010043F28801C6F2010140F2F73208F0DF
:105600005FFD00BF287472616E73666572427974C3
:1056100065732025206279746573456163685265FE
:10562000717565737429203D3D20305500000000E0
:1056300028282875696E7433325F74292875696E5D
:105640007433325F74202A2973726341646472294F
:10565000202520737263576964746829203D3D20BA
:1056600030550000646573744164647220213D20EC
:105670004E554C4C0000000073726341646472200C
:10568000213D204E554C4C0000281CBFC0E90012A3
:10569000704742F6E140C6F2010043F28801C6F2CB
:1056A000010140F2A23208F00BFD000000000000F2
:1056B000202917D20AB35FEAC36C01BF00EB411087
:1056C00000F5805011461A4608BF00F0E9B943F2D0
:1056D0001300C6F2010043F28801C6F20101E8227C
:1056E00008F0EEFC42F63870C6F2010043F2880181
:1056F000C6F20101E62208F0E3FC42F67870C6F239
:10570000010043F28801C6F20101E72208F0D8FC4B
:10571000B0B5044680B3E068D0B1607D40F0800051
:105720006075207CA16801EB401541F218002858F3
:10573000002808BFB0BDFFF77BFCA168CB68227CC6
:10574000012494401C4209D0BDE8B04000F060BA8A
:10575000A068217C01F01F01C176B0BD41F21C039D
:10576000EB5A03F09003802B1CBF02F01F02CA7695
:10577000BDE8B04000F04CBA42F6E140C6F201008C
:1057800043F28801C6F2010140F2045208F098FC8D
:105790002DE9F04F81B00F460446002800F0BA8092
:1057A000002F00F0C38094F81080D4E90290002804
:1057B00044D0FFF73DFC94F9131094F91420914262
:1057C00050DA94F91250E17C0131E174217D6E1CB4
:1057D000F2B28A4208BF0026A67400F019FA5FFAF6
:1057E00085FABAF1000FD34608BF94F814B0E06808
:1057F00000EB451000F0F4F8E06800EB4510394686
:10580000002200F04DF9E16801EB4512908B40F069
:105810000200908370B201EB40109061ABF1010384
:10582000DFB2BA4526D1217CA068FFF7B5FD94F917
:105830001500B0F1FF3F46DD002567E009EB481099
:1058400041F21C01415A11F0400F10D141F21601F2
:10585000415A41F21E02805A484040043AD041F277
:10586000ED3553E000F0D4F941F2EC354EE041F271
:10587000ED354BE05BB201EB43118B8B23F018034A
:1058800043F010038B8309EB481141F21807CB1941
:10589000CF59974212D141F21C07CE5B46F0080661
:1058A000CE53CE5B46F01006CE53CE5B16F0100FF3
:1058B00026D119688142B6D1002527E01868002852
:1058C000B1D0002522E0A068217C01F01F01C17643
:1058D00000251BE00025484641463A460023FFF7D5
:1058E000E7FE207CA16801EB401041F21C01425A06
:1058F00042F008024252425A42F00202425205E08D
:10590000C819018821F0080101800025284601B04E
:10591000BDE8F08F42F6E140C6F2010043F2880193
:10592000C6F2010140F2544208F0CAFB42F6787018
:10593000C6F2010043F28801C6F2010140F255426D
:1059400008F0BEFB0000000078B1C10601BF818BEA
:1059500041F008018183704708A043F2FB41C6F281
:10596000010140F2972208F0ABFB0CA043F2FB418F
:10597000C6F2010140F2962208F0A2FB28287569C0
:105980006E7433325F74297463642026203078315A
:10599000465529203D3D20305500000074636420A9
:1059A000213D204E554C4C0060B18A0742BF828B8E
:1059B00042F002028283490742BF818B41F0040119
:1059C0008183704742F66C70C6F2010043F2880191
:1059D000C6F2010140F29F2208F072FB00000000B5
:1059E000F0B1C10601BF002101608180C18001BF0B
:1059F0008160C1600161818201BFC1828161082231
:105A0000828304BFC183704743F23500C6F20100B0
:105A100043F28801C6F201014FF4E07208F050FB36
:105A200042F66C70C6F2010043F28801C6F2010131
:105A300040F2BF1208F044FB28B3C20601BF8268DF
:105A4000D1F804C04FF60043C3F6FF7301BF03EA69
:105A50008C2C0B7849786FF39F2201BF42EAC37206
:105A600042EA817141EA0C01816008BF704743F24C
:105A70003500C6F2010043F28801C6F201014FF47D
:105A80000B7208F01DFB42F66C70C6F2010043F287
:105A90008801C6F2010140F22B2208F011FB000040
:105AA000B0B598B3C3063DD1002947D0D30651D134
:105AB00091F808C0012404FA0CF3013BD1F800E08E
:105AC00013EA0E0F52D14B7A9C40651E4C6825425A
:105AD00058D1C0F800E0046143EA0C2340F2077596
:105AE0002B40C3804B8983808B8983820B698360C1
:105AF000898AC182C183002A1FBF8261818B21F004
:105B0000180141F0100118BF8183B0BD42F66C70DE
:105B1000C6F2010043F28801C6F201014FF4F772A8
:105B200008F0CEFA43F23500C6F2010043F28801D4
:105B3000C6F2010140F2EF1208F0C2FA42F67870A4
:105B4000C6F2010043F28801C6F201014FF4F87277
:105B500008F0B6FA43F21300C6F2010043F28801DE
:105B6000C6F2010140F2F11208F0AAFA42F687707B
:105B7000C6F2010043F28801C6F201014FF4F97246
:105B800008F09EFA42F6CC70C6F2010043F288019A
:105B9000C6F2010140F2F31208F092FA0000000090
:105BA000411E1F291ED80020DFE801F011101C162D
:105BB0001C1C1C131C1C1C1C1C1C1C1C1C1C1C1C2E
:105BC0001C1C1C1C1C1C1C1C1C1C1C190120C0B2F5
:105BD00070470320C0B270470220C0B27047052052
:105BE000C0B2704743F29B00C6F2010043F2880145
:105BF000C6F2010140F2CD3208F062FA0000000066
:105C000080F310887047000080F310887047000010
:105C100080F310887047000010F1800118BF08F071
:105C2000FBB970470000000010F1800118BF08F0B8
:105C300003BA70470000000010F1800118BF08F09F
:105C40000BBA70470000000008F016BA0000000010
:105C500080B5012000F0B8FABFF34F8F80BD00007F
:105C600080B5012000F0B0FABFF34F8F80BD000077
:105C700080B5022000F0A8FABFF34F8F80BD00006E
:105C800080B5022000F0A0FABFF34F8F80BD000066
:105C900080B5032000F098FABFF34F8F80BD00005D
:105CA00080B5032000F090FABFF34F8F80BD000055
:105CB00080B5052000F088FABFF34F8F80BD00004B
:105CC00080B5052000F080FABFF34F8F80BD000043
:105CD0000146002042F2A872C6F2010252F82030BA
:105CE0008B4208BF704701300628F7D303A043F268
:105CF000A101C6F201013C2208F0E2F9696E737459
:105D0000616E6365203C2041525241595F53495AAC
:105D10004528735F6770696F42617365732900007E
:105D2000F0B581B015460C460646FFF7D1FF0528B1
:105D300008D840F00401042904D011A131F9100061
:105D4000FDF762FE012000FA04F77069B843706144
:105D5000287840B16A783046214600F079F87068BA
:105D60003843706003E0F843716808407060AA78B7
:105D70003046214601B0BDE8F04000F099B800BFC0
:105D8000FFFF1A011E001A02FFFF1E0100000000A3
:105D900020293FBF0068C84000F00100704702A002
:105DA00004A1B22208F08CF970696E203C203332D5
:105DB00055000000647269766572735C66736C5F8F
:105DC0006770696F2E68000080B5012303FA01FC3B
:105DD000C36923EA0C03C3614FF0100E102934BFCE
:105DE0004FF00C0E1039013A042A88BF80BDDFE85D
:105DF00002F0030E161E280050F80E20490003235F
:105E000003FA01F122EA010140F80E1080BD50F8BA
:105E10000E20490003238B409A4301230BE050F8E6
:105E20000E20490003238B409A43022303E050F8DD
:105E30000E204900032303FA01F1114340F80E102C
:105E400080BDC16941EA0C01C16180BD0000000054
:105E5000202908D28423002A08BF8823012202FABD
:105E600001F1C150704704A043F2A101C6F2010143
:105E7000752208F025F900BF70696E203C2033328E
:105E80005500000000000000816170470000000024
:105E9000426922EA010141617047000000000000F0
:105EA00042691143416170478069704700000000FA
:105EB000FFF78ABF0000000000F00AB800000000F1
:105EC00000F016B80000000000F03EB8000000002E
:105ED00000281CBF083007F083BA42F6E140C6F242
:105EE000010042F6F041C6F20101642208F0E8F830
:105EF00000281FBF0029496842F62402C6F20102A9
:105F00001EBF4260083007F097BA04A042F6F04185
:105F1000C6F201014F2208F0D3F800BF28636F6E6C
:105F200066696720213D204E554C4C2920262620AD
:105F30002868616E646C6520213D204E554C4C29CB
:105F4000000000000000000070B515460E46044633
:105F5000E0B3B00735D04F20684348F21F51C5F277
:105F6000EB11A0FB0101302000EB511204F10800FD
:105F7000032107F019FF16F00C0F0FD04F206843D4
:105F800048F21F51C5F2EB11A0FB0101302000EBDC
:105F9000511204F10800082107F006FFF10558BF6F
:105FA00070BDC5EB052048F21F51C5F2EB11A0FBF7
:105FB00001014A0904F108000121BDE8704007F021
:105FC000F3BE002016F00C0FD8D1E7E742F6E1400F
:105FD000C6F2010042F6F041C6F20101842208F047
:105FE0006FF800000000000070B5044642F6186526
:105FF000C2F200052E68FFF713F856B1316839B1C7
:106000000D46A6420CD0296800292E46F8D100E0A2
:1060100035462C6000252560FFF7F2FDA8B270BD63
:10602000FFF7EEFD42F64775A8B270BD0000000014
:1060300010B90FE0006868B1B0F80CC00CF00F03A5
:106040008B4204BFCCF304139342F3D142F6477062
:1060500080B27047002080B270470000000000004E
:1060600010B50C4690B1818901F00F0041F6206215
:10607000C6F2010252F82000C1F30411FFF788FEB6
:10608000002818BF01202070002010BD42F64050AB
:10609000C6F2010042F61D51C6F201014FF4AD7285
:1060A00008F00EF800000000B0B582B00C460546BE
:1060B00000208DF80600ADF80400002D52D0002C11
:1060C0005CD0A17841F00400042802BF42F645707C
:1060D00002B0B0BD42F61860C2F20000006840B1E4
:1060E000E278FFF7A5FF00281EBF42F6477002B016
:1060F000B0BD2846FFF778FF08B102B0B0BDE07828
:1061000000F01F01A88920F4F87040EA0110A8816E
:10611000A27862F30300A8814EF2FF13184023789F
:1061200003F0010340EA4320A88102F00F00227827
:10613000012A06D101228DF8042062788DF805200D
:1061400002E000228DF80420C0B241F63862C6F2A7
:10615000010252F82000C9B201AAFFF7E1FD0020B8
:1061600002B0B0BD42F64050C6F2010042F61D51E9
:10617000C6F201014FF48C7207F0A2FF04A042F6B0
:106180001D51C6F2010140F2191207F099FF00BF3C
:1061900070696E436F6E6669670000000000000062
:1061A00000281EBFC0E901120020704742F640508F
:1061B000C6F2010042F61D51C6F2010140F275120D
:1061C00007F07EFF00000000F0B581B0044641F604
:1061D0005060C6F2010050F8246042F61860C2F226
:1061E000000007683046FFF75FFE05463046294647
:1061F000FFF74AFEAFB10126B88910F4E05F0DD079
:1062000000F00F018C4209D1C0F3041006FA00F02F
:1062100028421FBF79680029B86888473F68002F67
:10622000EAD101B0F0BD000080B50A4688B181898D
:1062300001F00F0041F66863C6F2010353F8200035
:10624000002A18BF0122C1F30411FFF701FE00204C
:1062500080BD42F64050C6F2010042F61D51C6F222
:10626000010140F2671207F02BFF00000000000060
:10627000F0B581B00446002861D0A08910F4007FF9
:106280000AD14A1E042A10D80E46DFE802F00F0396
:106290000A0C0800032609E042F645704CE002268D
:1062A00004E0042602E0052600E0002601F00701D4
:1062B00020F4E05040EA8120A081FEF7B1FE0546BF
:1062C000A18901F00F0041F68C67C6F2010757F86B
:1062D0002000C1F304113246FFF776FDA089C0F318
:1062E0000411012202FA01F100F00F0057F820001A
:1062F00066B1FFF7D5FDA18901F00F0011F4807F91
:1063000007D141F6A466C6F2010606E0FFF7C0FD1C
:106310000EE041F68066C6F2010636F9100007F07D
:10632000BBFEA08900F00F0036F91000FFF774FCE7
:106330002846FFF765FC002080B201B0F0BD42F6B0
:106340004050C6F2010042F61D51C6F2010140F272
:10635000991207F0B5FE0000A0F5617109290AD86D
:10636000DFE801F00512160E0E1A0E0E0E1E43F295
:10637000D60080B27047002802BF002080B270476C
:1063800043F2D50080B2704743F2D70080B2704725
:1063900043F2D80080B2704743F2D90080B2704710
:1063A00043F2DA0080B2704770B588B00C460546FB
:1063B000C8B11CB301AE304600F0FEFA207A8DF869
:1063C000040060680390607A85F83C0042F2C07176
:1063D000C6F2010151F820002268314600F018FB96
:1063E000002008B070BD42F66D50C6F2010042F6C2
:1063F0004B51C6F20101892207F062FE42F67C5041
:10640000C6F2010042F64B51C6F201018A2207F0A2
:1064100057FE00000000000080B586B018B369B3D5
:106420008A6800924A7CADF804208A7C013AB2FA6C
:1064300082F252098DF80620CA6802920A7C039201
:106440000A6804924968059190F83C0042F2C071D4
:10645000C6F2010151F82000694600F0BDFCFFF7CB
:106460007BFF06B080BD42F66D50C6F2010042F6D9
:106470004B51C6F20101E72207F022FE42F691508D
:10648000C6F2010042F64B51C6F20101E82207F0C4
:1064900017FE000000000000002818BF42F6AF7091
:1064A0007047000000000000B0B50D46044660B122
:1064B000BDB1A87B09281DD240B3284600F054F88E
:1064C000002804BFA97B2170B0BD42F66D50C6F212
:1064D000010042F64761C6F2010140F2BA2207F01C
:1064E000EFFD1CA042F64761C6F2010140F2BB225B
:1064F00007F0E6FD42F6E050C6F2010042F64761C1
:10650000C6F201014FF42F7207F0DAFD04A042F643
:106510004761C6F2010140F2BD2207F0D1FD00BF84
:106520004E554C4C20213D20735F4C707561727448
:1065300041646170746572426173655B7561727408
:106540005F636F6E6669672D3E696E7374616E631B
:10655000655D00004E554C4C20213D2075617274E4
:106560005F636F6E6669670010B586B0044601A868
:1065700000F0D6FE60680190207A8DF80800607AFD
:106580008DF80B00A07A002818BF01208DF81500A7
:10659000E07A002818BF01208DF81400E07B28B1B4
:1065A0000321042838BF411E8DF80C10207C28B12F
:1065B0000321042838BF411E8DF80D10207B0028D0
:1065C00018BF01208DF80E00607B40F20111ADF87C
:1065D0001210002818BF01208DF80F00A07B42F296
:1065E0004471C6F2010151F82000226801A900F0AF
:1065F000EFFE002802BF002006B010BDFFF74CFFE1
:1066000006B010BD0000000080B570B1C9B122B362
:10661000007842F24473C6F2010353F8200001F0FF
:106620001FF8BDE88040FFF737BF42F66D50C6F255
:10663000010042F64761C6F2010140F20A3207F05A
:106640003FFD42F63A60C6F2010042F64761C6F2EB
:10665000010140F20B3207F033FD42F62E60C6F224
:10666000010042F64761C6F201014FF4437207F0A0
:1066700027FD00000000000080B560B1B9B112B381
:10668000007842F24473C6F2010353F8200001F08F
:1066900077F8002080BD42F66D50C6F2010042F648
:1066A0004761C6F2010140F2193207F009FD42F6D6
:1066B0003A60C6F2010042F64761C6F2010140F2BB
:1066C0001A3207F0FDFC42F62E60C6F2010042F6D7
:1066D0004761C6F2010140F21B3207F0F1FC0000F5
:1066E0004CF20800C4F20A0001684FF6FF72CFF6C0
:1066F00000321140016070470160704700000000E7
:10670000016070470000000001F0070C009961F380
:10671000041CC0F800C0002A18BF136070470000B6
:106720000721032888BF032101FA00F04CF204017D
:10673000C4F20A010A6822EA0000086070470000FB
:106740000129B8BF704700F01F021144BFF34F8FFB
:106750004EF66872CEF20002106020392030002917
:10676000FADCBFF34F8FBFF36F8F7047000000005C
:106770000129B8BF704700F01F021144BFF34F8FCB
:106780004EF65C72CEF200021060203920300029F3
:10679000FADCBFF34F8FBFF36F8F7047000000002C
:1067A0000020C4F23F00012100F026B800000000E4
:1067B00044F20000C4F23F00022100F01DB80000C6
:1067C00048F20000C4F23F00032100F015B80000B9
:1067D0004CF20000C4F23F00042100F00DB80000AC
:1067E00080B500F011F900F040710020B1F1007F98
:1067F00008BF4FF4617080BDB0B50D460446006916
:1068000010F0010F1FBF42F63470C2F200000268A0
:10681000002A07D042F62070C2F2000050F825107E
:1068200020469047D4F8100110F0010F1FBF42F628
:106830004C70C2F200000068002802D1BFF34F8FF5
:10684000B0BD42F63870C2F2000050F82510204664
:1068500000F0DEFBBFF34F8FB0BD00000000000072
:1068600080B588B3DDF808E04FF0010CBEF1000FF1
:1068700005D000BFBEF1010E4FEA4C0CFAD1B0FBBF
:10688000FCFC44F6D350C1F26200ACFB000C4FEAB2
:106890009C1C44F24020C0F20F00B0FBFCF001EB66
:1068A00081014900B1FBF0F005304CF6CD41CCF64A
:1068B000CC41A0FB0101B2EBD10F98BFCA089A42AC
:1068C00088BF1A46104680BD03A043F2ED01C6F210
:1068D0000101F82207F0F4FB736F75726365436C76
:1068E0006F636B5F487A203E203055000000000047
:1068F0000146002042F22472C6F2010252F8203012
:106900008B4208BF704701300528F7D303A043F23C
:10691000ED01C6F20101E92207F0D2FB696E737442
:10692000616E6365203C2041525241595F53495A80
:1069300045286B4C706932634261736573290000AE
:10694000B0B50A46044611F470511ED0900409D423
:1069500010050AD450050BD4D00440F2873202EA65
:10696000E07507E040F28A3504E040F2893501E045
:1069700040F28635204600F013F8606A40F2863116
:106980008D4205D110F4007002D000252846B0BD1C
:10699000206940F4407020612846B0BD000000002E
:1069A0004161704700000000026922F001021143BA
:1069B0000161704700000000B0B5044600250021C9
:1069C0001C22FBF733FF40F201102060257148F2D2
:1069D000A060C0F20100C4E90205C4E90455012029
:1069E0002076B0BD00000000002A1EBFC36D03F07A
:1069F0000703136000291EBFC06DC0F3024008608A
:106A0000704700000000000040697047000000006F
:106A1000F0B581B016460D460446FFF769FF42F215
:106A20003871C6F2010131F91000FCF7F1FF204680
:106A300000F0BAF86878A978800040EAC10080F0D8
:106A40000400C0B22061206AA97DEA7D2B7E20F07F
:106A50000700084303F0010140EA410002F0010190
:106A600040EA81002062606A4FF6FF51CFF6FF01D5
:106A70000840E9782A7962F31A6040EA41206062AE
:106A8000204600F081F9A76A297D41B100200090DD
:106A9000304601220F23FFF7E3FE60F31B67697D99
:106AA00041B100200090304601220F23FFF7D8FEAD
:106AB00060F31347A762AA682046314600F0A0F8A9
:106AC000606AE96800F0070751B10097304601227B
:106AD00040F6FF73FFF7C4FEA16A60F30B01A162E9
:106AE000286958B10097010A3046012240F6FF7329
:106AF000FFF7B6FEE16A60F31321E16229782046D0
:106B000001B0BDE8F040FFF74FBF000000000000FB
:106B100070B514460D460646B9B3B4F5806F01D979
:106B2000042070BD002C04BF002070BD304600F072
:106B30002BFA98B9B4F5807F214609D940F2FF12AB
:106B4000214600BF3266A1F58071B1F5807FF9D88A
:106B5000FF31012262F31F21316634B970BD00BFDD
:106B600005F8010B0020002CF8D0013C3046FFF75F
:106B70004BFF01463046FFF7E3FE002818BF70BD0B
:106B8000306F10F4804FF1D1EAE743F20110C6F202
:106B9000010043F2ED01C6F2010140F26F3207F04D
:106BA0008FFA000000000000022101610021016154
:106BB000704700000000000070B514460D46064600
:106BC00089B1002C04BF002070BD00BF304600F02A
:106BD000DBF9002818BF70BD013C15F8010B3066C9
:106BE000F4D1002070BD43F21010C6F2010043F250
:106BF000ED01C6F201014FF4767207F061FA000070
:106C00002DE9F04F83B015460C46866AD0F8108007
:106C1000002701900021FFF7C7FE029404EB8400D7
:106C20004400C6F30340023008F0010100914FF028
:106C3000FF3C0122C0B24FF0010B4FF000094FF0B2
:106C4000000A00BFD1B2B0FBF1F8B4FBF1F3B3FB23
:106C5000F5F305334CF6CD46CCF6CC46A3FB063611
:106C6000C8EBD603023B5FFA83FEC8F1780676458F
:106C700012D3029EB6FBF1F108EB0E060236B1FB11
:106C8000F6F6711B38BFA91B614505D20029BA462B
:106C900099468C46934605D052000137F9B208292F
:106CA000D0D302E0BA4699469346012151FA89F1C0
:106CB0003422029B5A43B2FBF5F25FFA8BF4B2FB2B
:106CC000F4F248F21F53C5F2EB13A2FB0323A1EB2E
:106CD0005313B0FBF4F15FFA89FEAEEB01014A08F1
:106CE0004FF0FF37164657FA82F2F1B29942F9D8BF
:106CF0000298B0FBF5F34CF6CD40CCF6CC40A3FBAC
:106D00000072B3FBF4F7BB087F08A51CB5EB121F9C
:106D1000019811D212096FF0010CACEB0405AC180C
:106D2000856AC5F30365AC4284BFACEB0B05154423
:106D3000826A65F31B62826207F13F024FF47C179F
:106D400007EA0242AEEB060707F03F0761F30D27A3
:106D5000174303F13F014FF07C5202EA01613943CE
:106D60008164416A6AF3020141620099002904BF0B
:106D700003B0BDE8F08F012103B0BDE8F04FFFF78D
:106D800013BE000000000000002181657047000074
:106D9000F0B581B0044600F0F7F80546C8B94FF4E5
:106DA0000070206640F201272046FFF72DFE0646C0
:106DB00020463146FFF7C4FD054606EA0700B84203
:106DC00002D0002DF0D004E020464FF40071FFF710
:106DD000E7FD284601B0F0BD2DE9F04184B08846BA
:106DE0000446002900F0B780D8F80C00052880F090
:106DF000BE8098F80600012806D1D8F81400B0F536
:106E0000806F01D904269EE020460121FFF7CCFDCA
:106E10002046002100F0F0F82046FFF7E1FC06468E
:106E2000002840F0908020464FF4FE41FFF7B8FD67
:106E3000606A20F480706062D8F80CE0BEF1000F48
:106E40000CBF98F806C04FF0000C98F80000C0077F
:106E50000CD1B8F804004CEA400040F48060ADF872
:106E600002000127BEF1000F04D118E00027BEF197
:106E7000000F14D00DF1020000EB47026FF0070085
:106E800000EBCE03D8F80800714600BF20FA03F5E6
:106E9000EDB222F8025B083B0139F7D17744D8F80C
:106EA000140030B1BCF1000F04BF98F806000128AF
:106EB0000DD0CFB10DF10205204600F065F8064671
:106EC000D0BB013F35F8020B2066F5D10DE0B8F8D4
:106ED000040040F2014141EA40000DF1020121F8B5
:106EE00017000137002FE5D136BB98F8060018B11E
:106EF000002601280DD015E0D8F814209AB1D8F852
:106F000010102046FFF758FE064698F806000128A4
:106F100008D1D8F814202AB1D8F810102046FFF76D
:106F2000F7FD064646B998F8000040070FD4204602
:106F3000FFF72EFF064660B198F8000040075CBFDF
:106F40002046FFF725FF304604B0BDE8F08100265B
:106F5000F9E70026F7E743F21F10C6F2010043F2FB
:106F6000ED01C6F201014FF47F7207F0A9F843F278
:106F7000B400C6F2010043F2ED01C6F2010140F295
:106F8000FD3207F09DF80000B0B582B0044601ADB7
:106F9000204600212A46FFF727FD0198C0F1040092
:106FA00001902046FFF730FD01462046FFF7C8FC60
:106FB00001990143ECD002B0B0BD00000000000018
:106FC00010B50A4611F4406102BF0024204610BDEE
:106FD000530505D4120540F2873303EAE27401E059
:106FE0004FF4627400F004F8204610BD0000000069
:106FF000C0F8141170470000D0F8102122F00102EF
:107000001143C0F810117047D0F814017047000008
:1070100070B50C460546002900F0AD802846FFF704
:10702000F3FF064610F4406F14D02020207028464D
:107030003146FFF7C5FFE060207E800640F19B806F
:10704000236A002B08BF70BD626A28462146BDE84E
:107050007040184716F4407128D00022627010204A
:1070600020EA161000F110032370E069C4E9032040
:10707000202B08BF2275627D002A1FBF0022627587
:10708000013820612846FFF7B3FF0020C5F85401FE
:107090002078A16901421CBF236A002B78D1B0057A
:1070A00004D5204600211422FBF7C0FB70070FD542
:1070B00001202070D5F8501120756170207EC00726
:1070C0001CBF236A002B03D0626A284621469847DA
:1070D000300741BF08202070207E5FEA007026D470
:1070E000F0072DD001206075606800281CBFA068E3
:1070F000002809D102202070236A1BB1626A284649
:10710000214698470020E061606800281CBFA16804
:10711000002915D0421C62600078C5F86001481E45
:10712000A060E0690130E061B00724D50AE0236A7D
:10713000002BD5D0626A284621469847F007D1D166
:10714000B00718D5606800281CBFA068002809D1C6
:1071500004202070236A1BB1626A284621469847A2
:107160000020E061606800281CBFA168002903D1ED
:107170000120C5F8540170BDD5F87011421C626041
:107180000170A068E1690138A060481CE06170BD31
:10719000626A284621469847B0053FF582AF85E7E9
:1071A00080B542F65070C2F20000416840F218000B
:1071B000C2F20000426844F20000C4F21800904796
:1071C000BFF34F8F80BD000080B542F65070C2F211
:1071D0000000816840F21800C2F20000826848F2A4
:1071E0000000C4F218009047BFF34F8F80BD00002D
:1071F00080B542F65070C2F20000C16840F218003B
:10720000C2F20000C2684CF20000C4F218009047BD
:10721000BFF34F8F80BD000080B542F65070C2F2C0
:107220000000016940F21800C2F20000026900206B
:10723000C4F219009047BFF34F8F80BD00000000DB
:1072400080B542F65070C2F20000416940F2180069
:10725000C2F20000426944F20000C4F219009047F3
:10726000BFF34F8F80BD000080B542F65070C2F270
:107270000000816940F21800C2F20000826948F201
:107280000000C4F219009047BFF34F8F80BD00008B
:1072900080B542F65070C2F20000C16940F2180099
:1072A000C2F20000C2694CF20000C4F2190090471B
:1072B000BFF34F8F80BD000080B542F65070C2F220
:1072C0000000016A40F21800C2F20000026A0020C9
:1072D000C4F21A009047BFF34F8F80BD000000003A
:1072E00010B54CF20302CCF21F0201EA020411F0C5
:1072F000030F1FBF01F00301826A22F4703242EAD9
:10730000014118BF8162416901F078512143416117
:1073100000F052F8204018BF40F21A5010BD000093
:10732000B0B5044668B10025204600211422FBF7C1
:107330007DFA4FF4E130C4E90005C4E90255258225
:10734000B0BD43F24510C6F2010043F23011C6F25F
:10735000010140F28D2206F0B3FE000000000000A3
:107360000146002042F2D472C6F2010252F82030E7
:107370008B4208BF704701300928F7D303A043F2BE
:107380003011C6F20101D72206F09AFE696E7374BD
:10739000616E6365203C2041525241595F53495A06
:1073A0004528735F6C7075617274426173657329EF
:1073B000000000000000000041694CF2C302CCF262
:1073C000FF121140806AC32202EA1040084370474E
:1073D0002DE9F04F81B088468146002900F00581F3
:1073E000D8F800A0BAF1000F00F00B8198F808005F
:1073F000042880F00F8198F80900042880F0168195
:107400004FEA8A014FEA420E4FF0000C0425504625
:107410004FF0000B002700BFBEFBF1F30133C3F3B5
:107420004F043CB15B08BCEB543F18BF41F6FF73FF
:1074300001E000BF01239CB26C43B2FBF4F4BAEB51
:10744000040638BFA4EB0A0686429EBF9B462F4621
:10745000304651440135212DDED148F21F51C5F28D
:10746000EB11AAFB0112510901EB4101884282BFD5
:1074700040F2215001B0BDE8F08F4846FFF770FFA1
:1074800042F2F871C6F2010131F91000FCF7C4FABA
:10749000484600F069F907F0FC00D9F810100428FC
:1074A00008BF41F400314EF20000CEF2FF00084068
:1074B00007F11F016FF35F3B61F31C6B40EA0B00A8
:1074C000C9F81000D9F8100020F00050C9F81000D9
:1074D000D9F8180040F21771884398F8041098F80A
:1074E000052098F80E3098F80F70084307F007074A
:1074F00040EA072003F0010340EA8300012A06D195
:1075000000290CBF40F4006020F4006003E0002973
:1075100018BF40F01000C9F81800D9F8100098F80A
:10752000071061F34D30C9F8100098F8080098F87A
:10753000091040EA0140C9F82C00D9F8280040F0B1
:107540008800C9F82800D9F8280040F44040C9F85C
:10755000280098F80C0098F80D10D9F8242001F0B4
:10756000010142EA011100F0010041EA4010C9F8AE
:10757000240098F80A0000281EBFD9F8240040F023
:107580000800C9F8240098F80B0000281EBFD9F89D
:10759000240040F00100C9F8240098F806004CF2DD
:1075A0000001CCF21F0101F10051002804BF4CF290
:1075B0000001CCF21F01D9F8140040EA0100C9F81B
:1075C0001400D9F8180098F8101098F81120002924
:1075D00018BF40F40020002A18BF40F48020C9F8EA
:1075E0001800002001B0BDE8F08F43F24510C6F24C
:1075F000010043F23011C6F2010140F2691206F0B7
:107600005FFD10A043F23011C6F201014FF4B572D4
:1076100006F056FD43F29B10C6F2010043F2301112
:10762000C6F201014FF4B67206F04AFD43F254105F
:10763000C6F2010043F23011C6F2010140F26D12B0
:1076400006F03EFD3055203C20636F6E6669672D65
:107650003E62617564526174655F42707300000040
:107660002DE9F04115460E46044600296DD0A0696B
:1076700010F4006F06D1C10654BFC0F340084FF0AC
:10768000000801E04FF00108002D04BF0020BDE814
:10769000F08103E0002818BFBDE8F081E06A10F037
:1076A000E06F28D12046FFF787FE074610F4002F31
:1076B0002FD1F80304D40020B9030ED418E000BF82
:1076C00020464FF48031FFF70BFE002840F21A509D
:1076D00008BF4FF4A460B9030AD520464FF4003127
:1076E000FFF7FEFD002840F21A5008BF40F21F507D
:1076F0007903CFD51BE0013DE069B8F1000F18BF59
:1077000000F07F0006F8010B002DC7D10020BDE876
:10771000F08120464FF40021FFF7E2FD014640F2E0
:107720001A50002908BF40F21D50BDE8F0812046E4
:107730004FF48021FFF7D4FD014640F21A50002992
:1077400008BF40F21E50BDE8F08142F63A60C6F232
:10775000010043F23011C6F2010140F2BA4206F0D4
:10776000AFFC000000000000816841F00201816070
:10777000816821F002018160704700000000000074
:1077800081B14AB1436913F4000FFBD011F8013BFA
:10779000C361013AF6D100BF416911F4800FFBD0FB
:1077A0000020704742F63A60C6F2010043F2301101
:1077B000C6F2010140F23D4206F082FC00000000EA
:1077C00010B50446FDF730FC206010BD000000003D
:1077D000FEF71ABA0000000000281FBF0021417008
:1077E0000170002018BF704742F6D450C6F2010065
:1077F00042F69E51C6F2010140F24F3206F060FCA3
:1078000080B528B100210222FBF710F8002080BDCE
:1078100042F6D450C6F2010042F69E51C6F2010172
:1078200040F2BE3206F04CFCB0B582B0044640785F
:1078300030B143F2DF75002908BF43F2DE7509E07D
:1078400001A8FFF7BDFF0120607000252570019899
