:0200000460009A
:10000000464346420004015600000000010303007D
:1000100000000000000000000000000001000000DF
:10002000010C0000000000000000000000000000C3
:10003000F0000000000000000000000000000000D0
:100040001000000001040700000000000000000094
:100050000000800000000000000000000000000020
:100060000000000000000000000000000000000090
:100070000000000000000000000000000000000080
:10008000EB04180A083204260000000000000000FB
:10009000050404240000000000000000000000002F
:1000A0000000000000000000000000000000000050
:1000B0000604000000000000000000000000000036
:1000C0000000000000000000000000000000000030
:1000D00020041808000000000000000000000000DC
:1000E0000000000000000000000000000000000010
:1000F0000000000000000000000000000000000000
:10010000D8041808000000000000000000000000F3
:100110000204180804200000000000000000000095
:1001200000000000000000000000000000000000CF
:10013000600400000000000000000000000000005B
:10014000C0040120000000000000000000000000CA
:10015000000000000000000000000000000000009F
:10016000000000000000000000000000000000008F
:10017000000000000000000000000000000000007F
:10018000000000000000000000000000000000006F
:10019000000000000000000000000000000000005F
:1001A000000000000000000000000000000000004F
:1001B000000000000000000000000000000000003F
:1001C000000100000010000001000000000000001D
:1001D000000001000000000000000000000000001E
:1001E000000000000000000000000000000000000F
:1001F00000000000000000000000000000000000FF
:1002000000000000000000000000000000000000EE
:1002100000000000000000000000000000000000DE
:10100000D10020410020006000000000000000002E
:1010100020100060001000600000000000000000D0
:10102000000000600000800000000000FFFFFFFFE4
:1010300000000000000000000000000000000000B0
:1010400000000000000000000000000000000000A0
:101050000000000000000000000000000000000090
:101060000000000000000000000000000000000080
:1020000000000120D924006005250060092500603A
:10201000012500600125006001250060000000002E
:102020000000000000000000000000000D2500601E
:1020300001250060000000001125006015250060EA
:10204000192500601D250060212500602525006000
:10205000292500602D2500603125006035250060B0
:10206000392500603D250060412500604525006060
:10207000492500604D250060512500605525006010
:1020800059250060012500600125006001250060E0
:102090005D250060612500606525006069250060A0
:1020A0006D25006071250060752500607925006050
:1020B0007D25006081250060852500608925006000
:1020C0008D250060912500609525006099250060B0
:1020D0009D250060A12500600125006001250060AC
:1020E00001250060012500600125006001250060D8
:1020F00001250060012500600125006001250060C8
:1021000001250060012500600125006001250060B7
:1021100001250060012500600125006001250060A7
:10212000A1320160A9250060AD250060B1250060E5
:10213000B5250060012500600125006001250060D3
:102140000125006001250060012500600125006077
:102150000125006001250060012500600125006067
:102160000125006001250060012500600125006057
:102170000125006001250060012500600125006047
:10218000D14700602148006071480060C14800608C
:10219000114900606149006001250060012500606F
:1021A000B1490060014A0060B92500600125006066
:1021B0000125006001250060012500600125006007
:1021C00001250060012500600125006001250060F7
:1021D00001250060012500600125006001250060E7
:1021E00001250060012500600125006001250060D7
:1021F000BD25006001250060C1250060C525006087
:102200000125006001250060C9250060CD25006022
:1022100001250060012500600125006001250060A6
:102220000125006001250060012500600125006096
:102230000125006001250060012500600125006086
:102240000125006001250060012500600125006076
:102250000125006001250060012500600125006066
:102260000125006001250060012500600125006056
:102270000125006001250060012500600125006046
:102280000125006001250060012500600125006036
:102290000125006001250060012500600125006026
:1022A0000125006001250060012500600125006016
:1022B0000125006001250060012500600125006006
:1022C00001250060012500600125006001250060F6
:1022D00001250060012500600125006001250060E6
:1022E00001250060012500600125006001250060D6
:1022F00001250060012500600125006001250060C6
:1023000001250060012500600125006001250060B5
:1023100001250060012500600125006001250060A5
:102320000125006001250060012500600125006095
:102330000125006001250060012500600125006085
:102340000125006001250060012500600125006075
:102350000125006001250060012500600125006065
:102360000125006001250060012500600125006055
:102370000125006001250060012500600125006045
:102380000125006001250060012500600125006035
:102390000125006001250060012500600125006025
:1023A0000125006001250060012500600125006015
:1023B0000125006001250060012500600125006005
:1023C00001250060012500600125006001250060F5
:1023D00001250060012500600125006001250060E5
:1023E00001250060012500600125006001250060D5
:1023F000012500600125006001250060FFFFFFFF4F
:1024000000F002F800F057F80AA090E8000C8244AF
:102410008344AAF10107DA4501D100F04CF8AFF28C
:10242000090EBAE80F0013F0010F18BFFB1A43F0B2
:1024300001031847C4120400E41204000A4410F80F
:10244000014B14F00F0508BF10F8015B240908BF09
:1024500010F8014B6D1E05D010F8013B6D1E01F800
:10246000013BF9D1641E03D0641E01F8015BFBD16E
:102470009142E4D370470000002300240025002689
:10248000103A28BF78C1FBD8520728BF30C148BFD7
:102490000B6070471FB520F021FD0248024900F093
:1024A0006BFA1FBD04BE002004C2002010B500203E
:1024B00000F00EFC10BDDFF810D0FFF7EBFF09F0C5
:1024C0002BFF00F062FC00000000012003B4FFF7C6
:1024D000EDFF03BC00F02AFA72B605480549016019
:1024E0000A6882F308880448804762B603480047B8
:1024F00008ED00E000200060314F00600124006022
:10250000FFF7FEBF324800473248004732480047D5
:1025100032480047324800473248004732480047B7
:1025200032480047324800473248004732480047A7
:102530003248004732480047324800473248004797
:102540003248004732480047324800473248004787
:102550003248004732480047324800473248004777
:102560003248004732480047324800473248004767
:102570003248004732480047324800473248004757
:102580003248004732480047324800473248004747
:102590003248004732480047324800473248004737
:1025A0003248004732480047324800473248004727
:1025B0003248004732480047324800473248004717
:1025C0003248004732480047324800473248004707
:1025D00005250060092500600D25006011250060BB
:1025E00015250060E1570060315800608158006097
:1025F000D15800602159006071590060C1590060D4
:10260000115A0060615A0060B15A0060015B0060BD
:10261000515B0060A15B0060F15B0060415C0060A9
:10262000915C006001250060315E0060495E0060E1
:10263000615E0060795E0060915E0060A95E00608E
:10264000C15E0060D95E0060D15D0060E95D006040
:10265000015E0060195E00600125006001250060D8
:102660000125006001250060012500600125006052
:10267000F15E0060F95E0060315F0060015F006044
:10268000012500600125006001250060F9740060EB
:102690002175006001250060012500600048704739
:1026A0004002002070B5064600F04AF9056806F1C0
:1026B0000B0020F00704B4429CBF002070BD2B46E5
:1026C0006A68BAB11068A04210D304F108018842C8
:1026D0003CBF5068586007D35168101941601168B9
:1026E000091B016058601460101D70BD13465268CC
:1026F000002AE7D12146284600F02AF90028DED139
:1027000070BD70B50446051F00F01AF90068002C72
:1027100014BF446870BD002C18BFAC423CBF2046BB
:102720006468F8D301680A18AA4218BF456003D14B
:102730002A6805461144016028684119A1421CBF5E
:102740006C6070BD6168696021680844286070BD74
:1027500010B5002000F0C2F9FFF7A8FEBDE8104058
:10276000012000F0E3B80B460146184600F09FB97F
:1027700040EA010310B59B070FD1042A0DD310C8FE
:1027800008C9121F9C42F8D020BA19BA884201D950
:10279000012010BD4FF0FF3010BD1AB1D30703D098
:1027A000521C07E0002010BD10F8013B11F8014B4E
:1027B0001B1B07D110F8013B11F8014B1B1B01D16A
:1027C000921EF1D1184610BD10B5431C02E010F85E
:1027D000011B71B18107FAD14FF0013202C88C1A86
:1027E0008C4314EAC211F9D0C01A0A0603D0C01EE5
:1027F00010BDC01A10BD0A0401D0801E10BD090210
:10280000FCD0401E10BDCBB22AB101788B4203D060
:10281000401C521EF9D10020704740EA010370B5F8
:102820009B072ED14FF00136042A2AD308C810C9BD
:102830009D1B9D43121F15EAC61517D0D8B2E1B2F1
:10284000401A50EA056110D198B2A1B2401A50EA7C
:1028500005410AD123F07F4024F07F41401A50EA1D
:10286000052102D1180EA0EB146070BDA342DBD08D
:1028700018BA21BA884201D9012070BD4FF0FF304B
:1028800070BD0AB9002070BD10F8013B11F8014B72
:1028900063B1A3420AD1521E08D010F8013B11F8CF
:1028A000014B1BB1A34201D1521EEDD1181B70BDCB
:1028B00030B44FF0013C50F8042BCCFA52F451F8EC
:1028C000043BD51A20D1FCB950F8042BCCFA52F4B1
:1028D00051F8043BD51A17D1B4B950F8042BCCFAEF
:1028E00052F451F8043BD51A0ED16CB950F8042BB0
:1028F000CCFA52F451F8043BD51A05D1002CDAD0A9
:1029000030BC4FF00000704729BAB1FA81F111F0E4
:102910001801D1F120008440F2D1CA40CB4012F01E
:10292000FF0213F0FF0330BCD01A70470149182092
:10293000ABBEFEE7260002000048704740020020C0
:102940000048704748020020704770477047704742
:1029500038B504460A4600206946AFF300800028D7
:1029600008BF38BD02460099204600F097F90120C3
:1029700038BD012000F0EAB9F8B5AFF30080054694
:1029800000200C46102000BF0646A819A0420DD911
:10299000324669460020AFF30080070008BF00F010
:1029A000D5F90098A04218BF0546C419FFF7C8FF23
:1029B00005600746F01D20F007004619284600F084
:1029C0000AF8B44208BFF8BDA21B31463868BDE81A
:1029D000F84000F063B900210160C0E901107047C0
:1029E000102070472DE9F04791460C468046FFF7CE
:1029F000A7FF0768604234EA000001D1042C02D22C
:102A00000520BDE8F087601E40F0070609F10B00C5
:102A100020F007054D459CBF0020BDE8F0873B46F0
:102A20007A6882B31468101D404206EA000C6445BF
:102A300025D9A4EB0C00854221D8BCF1000F0BD0A6
:102A4000104601686244A1EB0C01116041685160BD
:102A5000C0F800C058600346116805F108008142C3
:102A600005D35019491B016015605860034652F8A0
:102A7000040F58600020C8F80020BDE8F087134616
:102A80005268002ACED129463846FFF761FF002858
:102A9000C5D10620BDE8F08710B5FFF7FFFD00683F
:102AA00010BD10B50446FFF7F9FD046010BD2DE917
:102AB000F041074615460E461020FFF7F3FD0400CF
:102AC0000AD06760C4E9026500F0D0F801682160AF
:102AD00004600020BDE8F0810120FBE710B500F0A4
:102AE0001DF9BDE8104000F014B9032A40F230800F
:102AF00010F0030C00F0158011F8013BBCF1020F3F
:102B0000624498BF11F801CB00F8013B38BF11F8BF
:102B1000013BA2F1040298BF00F801CB38BF00F8D6
:102B2000013B11F0030300F02580083AC0F0088053
:102B300051F8043B083A51F804CBA0E80810F5E737
:102B4000121D5CBF51F8043B40F8043BAFF300801A
:102B5000D20724BF11F8013B11F801CB48BF11F88F
:102B6000012B24BF00F8013B00F801CB48BF00F85F
:102B7000012B704710B5203AC0F00B80B1E8185017
:102B8000A0E81850B1E81850A0E81850203ABFF457
:102B9000F5AF5FEA027C24BFB1E81850A0E81850F6
:102BA00044BF18C918C0BDE810405FEA827C24BF4A
:102BB00051F8043B40F8043B08BF7047D20728BFD8
:102BC00031F8023B48BF11F8012B28BF20F8023B27
:102BD00048BF00F8012B70474FF000020429C0F0F5
:102BE000128010F0030C00F01B80CCF1040CBCF13F
:102BF000020F18BF00F8012BA8BF20F8022BA1EB91
:102C00000C0100F00DB85FEAC17C24BF00F8012B75
:102C100000F8012B48BF00F8012B70474FF000026D
:102C200000B5134694469646203922BFA0E80C50C2
:102C3000A0E80C50B1F12001BFF4F7AF090728BF9D
:102C4000A0E80C5048BF0CC05DF804EB890028BF19
:102C500040F8042B08BF704748BF20F8022B11F042
:102C6000804F18BF00F8012B70477047004870472D
:102C70007802002070B5A0FB0140B4F1805170F1E2
:102C8000000024BF002070BD2046FFF70BFD0500AB
:102C90001CBF2146FFF7A0FF284670BD03464068D1
:102CA0008C46002818BF88423CBF03464068F8D3D2
:102CB00018681844884207D00CF1030020F0070080
:102CC000001D411A521A0146081D0A60FFF719BD7E
:102CD0002DE9F0410646FFF7C9FF8046454613E05F
:102CE00016B1E068B0420ED120682860D4E9010135
:102CF000D8F8007088472046FFF703FDD8F8000099
:102D0000B842EBD100E025462C68002CE8D1BDE8A4
:102D1000F081002801D0FFF709BE704710B50021EF
:102D200002A000F03BF8012010BD000053494741CC
:102D30004252543A2041626E6F726D616C2074652C
:102D4000726D696E6174696F6E00000010B500F0FD
:102D50003FF8BDE81040FFF7DCBF000080E8FF1F30
:102D6000C0F834D0C0F838E0C0F83CE04FF00000C4
:102D7000704700BF80EC200B704700BF80EC200B39
:102D8000704700BFC0EC200B704710B50446AFF38E
:102D900000802046BDE81040FFF798BB70B505469F
:102DA0000C460A2000E06D1C00F04DF835B1287883
:102DB0000028F8D102E0641C00F045F814B1207836
:102DC0000028F8D1BDE870400A2000F03CB80000AF
:102DD00010B5012805D0002103A0FFF7DFFF012077
:102DE00010BD09A1F8E7000053494752544D454D25
:102DF0003A204F7574206F662068656170206D659C
:102E00006D6F7279000000003A2048656170206D96
:102E1000656D6F727920636F72727570746564008E
:102E200086469EE8FF1FDEF834D0DEF83CE07047AF
:102E300090EC200B704700BF90EC200B704700BF58
:102E4000D0EC200B704708B569468DF800000320D0
:102E5000ABBE08BD0000000040F2C0200122C2F25B
:102E600000008089C0F3041100F00F0002FA01F1A4
:102E70004CF29462C6F2020252F820000068084048
:102E8000B0FA80F04009704740F2E02CC2F2000C2A
:102E9000DCF80820002A08BF704780B540F2C02047
:102EA0000121C2F200008089C0F3041300F00F007A
:102EB00099404CF29463C6F2020353F82000006874
:102EC0000840DCF81410B0FA80F040099047BDE8E3
:102ED0008040704700BF00BF40F2D0214CF29463A5
:102EE0000028C2F20001C6F20203898901F00F0234
:102EF00053F822204FF0880318BF8423C1F3041035
:102F0000012101FA00F0D050704700BF00BF00BFA0
:102F10004EF20111C12248F2B023C0F2F551C4F2C1
:102F20001F0388424FF28101C0F2FA2138BF81228B
:102F3000884240F23800C0F2010038BF012200F59B
:102F4000E041104311439960D860196159611960DB
:102F50005960704700BF00BFB7EE001A10F0010FB4
:102F600000F1010101FE002A032911D301210246CB
:102F700002EBD27220EE000A20EE023A11EA620F52
:102F800001EB62034FEA620202FE032A022BEFD832
:102F900081EE020A002822FE000A704700BF00BF2F
:102FA0002DE9F04F87B040F2380142F200034CF2B5
:102FB0008460C2F20001C2F20003C6F202004A6855
:102FC000C3E900104CF2C461C6F202019A60506875
:102FD0000090D2E9090C83F84800C0B251F82000F3
:102FE00047F6FF71C4F23F0188420DDC0021C4F2B4
:102FF0003F01884210D044F20001C4F23F018842F0
:1030000041F07980022111E048F20001C4F23F0151
:10301000884203D1032109E0012107E04CF20001BD
:10302000C4F23F01884241F07380042101924CF2C6
:10303000FC620323C6F2020232F9111001F01F02F2
:10304000090A03FA02F24CF26803C4F20F0303EB1D
:10305000810300BF53E8001F114343E80017002F0E
:103060001FBF53E8001F114343E80017002F0CD087
:1030700053E8001F114343E8001737B153E8001F1E
:10308000114343E80017002FE4D102214FF0000E56
:1030900045F6C5294CF6CD45052447F66016016175
:1030A000C0F810E0C0F810E0C0F67C29CCF6CC45A2
:1030B000CFF6FE76026AAB4661F3020202624FF679
:1030C000FF52416ACFF6FF0211404162C0F858E05A
:1030D000816A8162816A02690492026922F00102B6
:1030E00002610CEB8C02C2F31A13C1F30341A3FB80
:1030F000093704EBD713A3FB05378D1CC1F176010B
:10310000C5EBD70348F2A067023BC0F201075FFAA4
:1031100083F8414517D305EB08014FF0000E02314B
:10312000BCFBF1F1B7EB010A98BF01EB060A1AF1FB
:10313000010108D0BAF1000F40F0AD814FF0010E4F
:103140004FF0000AB1E1CDF814C04FF0FF3A4FEA5A
:10315000420942F6635705F0FE014FF0780C4FEA42
:103160009912C0F23E57ACEB5103A2FB072704EBC8
:103170009712A2FB0B24E208A2EB51018A1EC5F3B1
:1031800046015FFA82F843451DD3059B4144023155
:103190005B08B3FBF1F348F2A061C0F20101C91A68
:1031A00098BF991951450ED24FF0020E4FF0010A07
:1031B00000295E4600F07381022396468A460393F7
:1031C0000123029304E001215E4603910021029154
:1031D00005F0FC014FEAD9130524ACEB910748F642
:1031E000593CC0F24F1CA3FB0C3204EB1212A2FBA1
:1031F0000623DA08A2EB91018B1EC5F385015FFA65
:1032000083F8474520D3059A414447F660160231BA
:10321000CFF6FE769208B2FBF1F248F2A061C0F25E
:103220000101891A98BF91195E4651450CD24FF0A1
:10323000040E4FF0020A002900F03D8104229E4650
:103240008A460392022202924FEA192205F0F801FF
:103250004FF0780BA2FB0C23ABEBD10704EB13125E
:10326000A2FB0623DA08A2EBD1018A1EC5F3C40132
:103270005FFA82F8474502D2DDF814C021E0DDF89C
:1032800014C0414447F660140231CFF6FE744FEA91
:10329000DC03B3FBF1F348F2A061C0F20101C91AEB
:1032A00098BF191951450CD24FF0080E4FF0030A80
:1032B000002900F00281082396468A4603930323DF
:1032C00002934CF2AD534FEA592205F0F001C0F2DF
:1032D000A703ABEB1117A2FB0323052202EBD303D9
:1032E000A3FB0634E308A3EB11118B1EC5F30311F6
:1032F0005FFA83F8474504D242F2000BC2F2000B9A
:1033000024E041F002014FEA1C1747F6601442F234
:10331000000B4144CFF6FE74C2F2000BB7FBF1F78D
:1033200048F2A061C0F20101C91B98BF391951458B
:103330000CD24FF0100E4FF0040A002900F0C180AB
:10334000102704249E468A46039702944EF2D72300
:103350004FEA9921C0F25303A1FB031302EB93013F
:103360006FF00102A1FB061302EBD3035FFA83F8AF
:10337000B8F1780F1FD808F102014FEA5C1747F641
:103380006014B7FBF1F748F2A061CFF6FE74C0F20B
:103390000101C91B98BF391951450CD24FF0200EBD
:1033A0004FF0050A002900F08C80202705249E4656
:1033B0008A46039702944FF6B6034FEAD921C0F22A
:1033C0001403A1FB0317791DA1FB061702EBD7021B
:1033D0005FFA82F8B8F1780F1ED808F102014FEABF
:1033E0009C1747F66014B7FBF1F748F2A061CFF6DF
:1033F000FE74C0F20101C91B98BF391951450BD2A7
:103400004FF0400E4FF0060A00295AD040270624FC
:1034100096468A46039702944FEA1931A1FB03129C
:10342000511DA1FB06126FF0010101EBD2025FFA00
:1034300082F8B8F1780F07D9049BDDF808A045F6AB
:10344000C529C0F67C2921E008F102014FEADC130E
:1034500047F6601445F6C529B3FBF1F348F2A061C5
:10346000CFF6FE74C0F67C29C0F20101C91A98BFDC
:103470001919049B5145DDF808A007D24FF0800EC2
:103480004FF0070A11B38021964603915FFA8EF838
:10349000DDF80CE01AE09E46CDF814C057E6DDF8E2
:1034A00014C045F6C529C0F67C29049B42F2000BE6
:1034B000C2F2000B0AE0DDF814C042F2000BC2F2C7
:1034C000000B049B45F6C529C0F67C29342103F086
:1034D00001020CFB01F14909A1FB0913D90948F2CA
:1034E0001F53B1FBFEF1C5F2EB13A1FB031308F16F
:1034F0000101A1EB5314E9B24FF0FF35B1FBFEF12E
:10350000A8EB01014B0800BFDEB2A64282BF55FA0C
:1035100083F3DEB2A6420CD955FA83F3DEB2A6429B
:1035200007D955FA83F1CEB255FA81F3A642EBD80A
:103530000B464DF683610EF10207C4F21B31ACFB62
:1035400001144FEA5C11B7EBD44FA1FB09154FEA08
:10355000D511B1FBFEF54FEA95014FEA55050FD2A3
:10356000E70C6FF00104A4EB0E043C44876AC7F338
:103570000367BC4288BFE7B2846A67F31B64846256
:10358000A8EB030305F13F074FF47C153F31002AF8
:1035900040F280344FF0700203F03F0305EA074722
:1035A000C2F2000466F30D2343EA07034FF07C5791
:1035B00007EA016141EA03018164416A6AF3020199
:1035C00041621EBF016941F001010161416A016967
:1035D00041F0010101614CF214612046C6F2020182
:1035E000FFF7C8FA00200DF11B021E21E0838DF8C1
:1035F0001B00DBF8080090F8200000F031FE0546C3
:10360000F0BBFE200DF11B02322160868DF81B00FD
:10361000DBF8080090F8200000F022FE054678BB99
:103620004FF4FC700DF11B023521A086F8208DF8B7
:103630001B00DBF8080090F8200000F011FE0546A2
:10364000F0B93C200DF11B025E21A4F85E008DF85C
:103650001B00DBF8080090F8200000F001FE054692
:1036600070B940200DF11B02122160828DF81B0001
:10367000DBF8080090F8200000F0F2FD054618B1D4
:10368000284607B0BDE8F08F01980425007805288A
:10369000F6D8DFE800F00468230303B1F0E7DBF8B5
:1036A000080080260DF11B024421A4F844608DF827
:1036B0001B6090F8200000F0D3FD05460028DFD104
:1036C000DBF80800A4F84A608DF81B600DF11B02BE
:1036D0004A2190F8200000F0C3FDABE0DBF80800C1
:1036E0004FF4807600270DF11B024521A4F84460B9
:1036F0008DF81B7090F8200000F0B2FD0546002800
:10370000BED1DBF80800A4F84A608DF81B700DF1FB
:103710001B024B2190F8200000F0A2FD0546002876
:10372000AED13C200DF11B025E21A4F85E008DF8A5
:103730001B00DBF8080090F8200000F091FD054622
:1037400000289DD10120012100F0BAFE0546002885
:1037500096D10020012100F0B3FE054600287FF439
:103760008FAF062037E0DBF808004FF480760027A3
:103770000DF11B024521A4F844608DF81B7090F8F0
:10378000200000F06DFD054600287FF479AFDBF8DE
:103790000800A4F84A608DF81B700DF11B024B2144
:1037A00090F8200000F05CFD054600287FF468AF2B
:1037B0000C200DF11B025E21A4F85E008DF81B00A9
:1037C000DBF8080090F8200000F04AFD05460028CC
:1037D0007FF456AF0120012100F072FE054600285B
:1037E0007FF44EAF0920012100F06AFE0546002853
:1037F0007FF446AF07201AE030200DF11B025E2156
:10380000A4F85E008DF81B00DBF8080090F820009B
:1038100000F026FD054600287FF432AF0620012186
:1038200000F04EFE054600287FF42AAF002001215B
:1038300000F046FE054600287FF422AF019DE18995
:10384000687821F01302090A10430DF11B02E08190
:103850008DF81B00072060F35F01DBF8080090F88B
:10386000200000F0FDFC08B1012509E7287D0128B2
:1038700018D1A08EAE690DF11B025F4620F0010148
:10388000A1868DF81B10010A1A2060F35F01DBF896
:10389000080090F8200000F0E3FC002800F03880D9
:1038A0000125EDE65F460198007C00282CD0019AA6
:1038B00000980425D2E90212400051434900B0FBB0
:1038C000F1F0811E2E293FF6DBAE00203B46DFE8FB
:1038D00001F06119581856184E1818525A1818182D
:1038E0005C181818181860185E1818181818181886
:1038F0004C181818181818181818181854181818D8
:103900005000BDE6012045E0E08920F040015EE086
:1039100020890DF11B0220F0070121818DF81B1079
:10392000010A042060F35F01B86890F8200000F0FD
:1039300097FC08B10125A3E60099B000B0FBF1F5B2
:10394000052D0ED800994908B0FBF1F50091052D21
:1039500000F23481009AF1004FF00209B1FBF2F558
:103960002EE14FF0010900262BE10A2012E004208D
:1039700010E00C200EE005200CE00B200AE00320F4
:1039800008E0022006E0062004E0072002E009200B
:1039900000E00820218A1F4621F00F02090A104387
:1039A0000DF11B0220828DF81B00082060F35F01DF
:1039B000986890F8200000F053FC08B101255FE6FC
:1039C0000199E089097C00299FD040F04001E18104
:1039D0008DF81B10010A07200DF11B0260F35F0137
:1039E000B86890F8200000F03BFC0198407F052863
:1039F00000F2E280DFE800F003622A460F99608E51
:103A000020F0280161868DF81B10010A192060F34F
:103A10005F01B868ADE0608E0DF11B023E4640F0DC
:103A2000280161868DF81B10010A192060F35F01DF
:103A3000B86890F8200000F013FC054600287FF4D9
:103A40001FAEB4F8560040F00E0188E0608E0DF114
:103A50001B023E4640F02A0161868DF81B10010AC8
:103A6000192060F35F01B86890F8200000F0F8FBBF
:103A7000054600287FF404AE4FF4BC70A4F8400063
:103A8000782036E0608E0DF11B023E4640F02A01A0
:103A900061868DF81B10010A192060F35F01B86878
:103AA00090F8200000F0DCFB054600287FF4E8AD2C
:103AB0004FF4DC70A4F84000B8201AE0608E0DF1DD
:103AC0001B023E4640F02A0161868DF81B10010A58
:103AD000192060F35F01B86890F8200000F0C0FB87
:103AE000054600287FF4CCAD4FF49C70A4F840004C
:103AF00038208DF81B00B0680DF11B02412190F8B1
:103B0000200000F0ADFB054600287FF4B9AD40F27F
:103B1000171037460DF11B020121208017208DF868
:103B20001B00B06890F8200027E0608E0DF11B02AA
:103B30003E4640F0280161868DF81B10010A1920CD
:103B400060F35F01B86890F8200000F089FB05463B
:103B500000287FF495ADB4F8560040F07001A4F849
:103B600056108DF81B10010A2B20374660F35F01B9
:103B7000B06890F820000DF11B0200F071FB0546C3
:103B800000287FF47DAD0198807F052800F25481E4
:103B9000DFE810F006001C01E4000001C900550137
:103BA000608E20F0100161868DF81B10010A19202B
:103BB00060F35F01B86865E1042561E54FF0010934
:103BC0001026A91F062901D9042559E5A0FB0901E2
:103BD0004FF47A72A0FB020301FB0231009B44F612
:103BE000D352C1F26202A3FB02239A0900231AF006
:103BF00067FA4BF6C05269420023CFF6F072E5FB3C
:103C0000020144F240220906C0F20F0241EA1021EB
:103C100000061AF055FA804605F00F000DF11B0260
:103C200068213043B8F1000F3E4618BF40F0200035
:103C3000A4F868008DF81B00B86890F8200000F028
:103C40000FFB054600287FF41BADC8F307400DF1BC
:103C50001B026A21A4F86A004FEA18408DF81B0085
:103C6000B06890F8200000F0FBFA054600287FF4C9
:103C700007ADC8F307200DF11B026C21A4F86C00FE
:103C80004FEA18208DF81B00B06890F8200000F073
:103C9000E7FA054600287FF4F3AC5FFA88F08DF868
:103CA0001B800DF11B026E21A4F86E00B06890F825
:103CB000200000F0D5FA054600287FF4E1ACA08E84
:103CC0000DF11B0240F00101A1868DF81B10010AC5
:103CD0001A2060F35F01B06890F8200000F0C0FA8D
:103CE000012500287FF4CCACB9F1010F0DF11B02C6
:103CF00018BF45EA4909208920F0070040EA090079
:103D000020818DF81B00010A042060F35F01B06878
:103D100090F8200000F0A4FA00287FF4B1AC0198DC
:103D200080690090BFE5608E0DF11B023E4640F0B9
:103D3000100161868DF81B10010A192060F35F01E4
:103D4000B86890F8200000F08BFA054600287FF450
:103D500097ACB4F8580040F00E018AE0608E0DF187
:103D60001B023E4640F0120161868DF81B10010ACD
:103D7000192060F35F01B86890F8200000F070FA35
:103D8000054600287FF47CAC4FF4BC70A4F84200D8
:103D9000782036E0608E0DF11B023E4640F01201A5
:103DA00061868DF81B10010A192060F35F01B86865
:103DB00090F8200000F054FA054600287FF460AC2B
:103DC0004FF4DC70A4F84200B8201AE0608E0DF1C8
:103DD0001B023E4640F0120161868DF81B10010A5D
:103DE000192060F35F01B86890F8200000F038FAFD
:103DF000054600287FF444AC4FF49C70A4F84200C0
:103E000038208DF81B00B0680DF11B02432190F89B
:103E1000200000F025FA054600287FF431AC40F27E
:103E200017100DF11B020321608017208DF81B0075
:103E3000B06890F8200029E00425FFF721BC608ECF
:103E40000DF11B023E4640F0100161868DF81B10FB
:103E5000010A192060F35F01B86890F8200000F0B3
:103E6000FFF9054600287FF40BACB4F8580040F089
:103E70007001A4F858108DF81B10010A2C2060F373
:103E80005F01B06890F820000DF11B0200F0E8F926
:103E9000054600283E467FF4F3AB0198007F38B119
:103EA0000820012100F00CFB054600287FF4E8AB58
:103EB000C0200DF11B022E21E0858DF81B00B0689B
:103EC00090F8200000F0CCF9054600287FF4D8AB2C
:103ED00040200DF11B026021A4F860008DF81B004A
:103EE000B06890F8200000F0BBF9054600287FF488
:103EF000C7ABB0684FF000080DF11B025A21A4F8BF
:103F00005A808DF81B8090F8200000F0A9F9054632
:103F100000287FF4B5ABB068A4F85C808DF81B80F6
:103F20000DF11B025C2190F8200000F099F9054684
:103F300000287FF4A5ABB06840F2C3184FF0C30966
:103F40000DF11B022B21A4F82A808DF81B9090F80C
:103F5000200000F085F9054600287FF491ABB06899
:103F6000A4F82C808DF81B900DF11B022D2190F8E8
:103F7000200000F075F9054600287FF481ABB06899
:103F80004FF4F0784FF0E0090DF11B021521A4F871
:103F900014808DF81B9090F8200000F061F9054620
:103FA00000287FF46DABB068A4F816808DF81B90E4
:103FB0000DF11B02172190F8200000F051F9054681
:103FC00000287FF45DABB06840F26F184FF06F09C6
:103FD0000DF11B020521A4F804808DF81B9090F8C8
:103FE000200000F03DF9054600287FF449ABB06899
:103FF000A4F806808DF81B900DF11B02072190F8A4
:10400000200000F02DF9054600287FF439ABB06898
:1040100040F2FF184FF0FF090DF11B025121A4F8E7
:1040200050808DF81B9090F8200000F019F905469B
:1040300000287FF425ABB068A4F852808DF81B905F
:104040000DF11B02532190F8200000F009F90546FC
:1040500000287FF415ABF7200DF11B026221A4F8B4
:1040600062008DF81B00B06890F8200000F0F8F8AE
:10407000054600287FF404AB00200DF11B020A2145
:1040800060818DF81B00B06890F8200000F0E8F81F
:10409000054600287FF4F4AAB06840F217184FF0E4
:1040A00017090DF11B020121A4F800808DF81B9067
:1040B00090F8200000F0D4F8054600287FF4E0AA2C
:1040C000B068A4F802808DF81B900DF11B0203214B
:1040D00090F8200000F0C4F8054600287FF4D0AA2C
:1040E0000199D1E902050099B1FBF0F0B0F5807FAC
:1040F00016D1002019E058B942F6671043F2D131C9
:104100004FF4A362C6F20400C6F204010FF0FCF8FB
:1041100042F68C5148A0E922C6F204010FF0F4F8EF
:104120003FD9000A810141EAC00021890DF11B023B
:1041300021F4FC71014321818DF81B10010A042038
:1041400060F35F01B86890F8200000F089F810B1C2
:104150000125FFF795BAA5F1100004254FEAB0003C
:1041600004283FF68DAADFE800F0051F37034F0053
:10417000FFF786BAE0890DF11B0220F00C01E18106
:104180008DF81B10010A072060F35F01B86890F8F2
:10419000200000F065F80546002818BF0125FFF74C
:1041A0006FBA0425FFF76CBAE0890122010A62F3B5
:1041B00083000DF11B02E0818DF81B00072060F3E6
:1041C0005F01B86890F8200000F04AF80546002822
:1041D00018BF0125FFF754BAE0890222010A62F3F1
:1041E00083000DF11B02E0818DF81B00072060F3B6
:1041F0005F01B86890F8200000F032F8054600280A
:1042000018BF0125FFF73CBAE0890DF11B0240F011
:104210000C01E1818DF81B10010A072060F35F019A
:10422000B86890F8200000F01BF80546002818BF79
:104230000125FFF725BA00BF696E7374616E63656F
:10424000203C2041525241595F53495A45286B4CFA
:1042500070693263426173657329000000BF00BF5B
:10426000B0B586B0019201224CF2C463009242F2D2
:104270000002C6F20203C2F2000292F84820DDF802
:1042800004E053F82240009B256945F001052561B3
:10429000D4F8105125F00105C4F81051656905F0F6
:1042A0004075B5F1007F03D143F2D60006B0B0BD32
:1042B0004FF4FE45C9B240F2873C6561656A25F45A
:1042C00080756562ADF80C104FF4806141EA4000E2
:1042D000ADF80A00E16D656901F0070115F4705051
:1042E000C1F104010AD0AA040ED42A050FD46A052C
:1042F00019D4EA040CEAE2750BE000BF002555EA88
:104300000100E7D01BE000BF40F28A3501E040F237
:1043100089356061606A206940F44070206155EA27
:104320000100D7D00BE06061606A10F4007F02D119
:1043300040F28635EFE7002555EA0100CAD0002D8E
:1043400040F08480BDF80A0040F2873C206600BF40
:10435000E16D656901F0070115F47050C1F10401C8
:104360000AD0AA040ED42A050FD46A0519D4EA0487
:104370000CEAE2750BE000BF002555EA0100E7D02A
:104380001BE000BF40F28A3501E040F289356061F0
:10439000606A206940F44070206155EA0100D7D07E
:1043A0000BE06061606A10F4007F02D140F2863554
:1043B000EFE7002555EA0100CAD0002D46D1BDF82F
:1043C0000C00002B20663CD0BEF1000F65D040F2FF
:1043D000873C11E01EF8010B013B20660CD130E058
:1043E0006061606A10F4007F02D140F286351EE001
:1043F000002555EA010021D1E16D656901F0070151
:1044000015F47050C1F10401F2D0AA0408D42A05B1
:1044100009D46A05E4D4EA040CEAE27505E000BFB9
:1044200040F28A3501E040F289356061606A2069B6
:1044300040F44070206155EA0100DDD0002DC9D064
:1044400004E0204601F050FC054698B1204601F0FA
:104450004BFCA5F5617009280BD8DFE800F00506D4
:10446000160E0E1A0E0E0E121EE743F2D70006B0FD
:10447000B0BD15B9002006B0B0BD43F2D50006B0FE
:10448000B0BD43F2DA0006B0B0BD43F2D80006B0CA
:10449000B0BD43F2D90006B0B0BD42F68C5103A0C6
:1044A0004FF47672C6F204010EF02EFF4E554C4CBE
:1044B00020213D20747842756666000000BF00BF71
:1044C000F0B581B00C4601460420092900F27D8137
:1044D000DFE811F00A002D0057007B0161007B012D
:1044E0007700D0000401430140F2803542F200071A
:1044F00019260DF10302C2F20005C2F20007688E10
:1045000020F0080141EAC40169868DF80310010A10
:10451000B86866F35F0190F82000FFF7A1FE00285D
:1045200040F03981688E40EA84016986C5E040F236
:10453000803542F200060DF10302C2F20005C2F21C
:104540000006A88E20F480718DF80300B06841EA5F
:104550000421A98644F0340190F82000FFF780FE82
:10456000002840F01881A88E20F0800141EAC41193
:10457000A9868DF80310010A1A2060F35F01B06864
:10458000A1E040F28030C2F20000418E21F04002F2
:1045900042EA841208E040F28030C2F20000418E0C
:1045A00021F0020242EA44024286090A19208DF8EB
:1045B000032060F35F0142F20000C2F20000806855
:1045C00081E040F2803542F2000619270DF1030226
:1045D000C2F20005C2F20006688E20F0200141EA16
:1045E000441169868DF80310010AB06867F35F0112
:1045F00090F82000FFF734FE002840F0CC80688E51
:104600000DF1030220F0100141EA041169868DF8D2
:104610000310010AB06867F35F0190F82000FFF70C
:104620001FFE002840F0B780B5F85E1060012F270C
:1046300021F02002090A104367F35F010DF1030224
:10464000A5F85E008DF80300B06890F82000FFF731
:1046500007FE002840F09F80B5F85E10200121F091
:104660001002090A104367F35F01A5F85E008DF898
:10467000030084E740F2803542F200071A260DF16C
:104680000302C2F20005C2F20007A88E20F040012A
:1046900041EA8411A9868DF80310010AB86866F30F
:1046A0005F0190F82000FFF7DBFD002873D1A88E92
:1046B00020F0200141EA4411A9868DF80310010A77
:1046C000B86866F35F0190F820000DF10302FFF770
:1046D000C7FD002818BF012001B0F0BD40F28035B1
:1046E00042F200061A270DF10302C2F20005C2F2DF
:1046F0000006A88E20F0100141EA0411A9868DF869
:104700000310010AB06867F35F0190F82000FFF71B
:10471000A7FD00283FD1A88E0DF1030220F008016B
:1047200041EAC401A9868DF80310010AB06867F355
:104730005F0190F82000FFF793FD60BBF7200DF1BB
:1047400003026221A5F862008DF80300B06890F8BA
:104750002000FFF785FD01B0F0BD40F2803542F248
:1047600000072F260DF10302C2F20005C2F2000776
:10477000B5F85E0020F0080141EAC401A5F85E101A
:104780008DF80310010AB86866F35F0190F8200005
:10479000FFF766FD10B1012001B0F0BDB5F85E0075
:1047A0000DF1030220F0040141EA8401A5F85E1036
:1047B0008DF80310010AB86866F35F0190F82000D5
:1047C000FFF74EFD002818BF012001B0F0BD00BF6B
:1047D00070B540F2F030C2F20000046848F21800F0
:1047E000C4F21B000568002C056016D0012600BF2E
:1047F000A08910F4E05F0DD000F00F01012909D16C
:10480000C0F3041006FA00F028421FBF61680029B7
:10481000A06888472468002CEAD1BFF34F8F70BD91
:1048200070B540F2F030C2F20000046848F218009F
:10483000C4F21B000568002C056016D0012600BFDD
:10484000A08910F4E05F0DD000F00F01012909D11B
:10485000C0F3041006FA00F028421FBF6168002967
:10486000A06888472468002CEAD1BFF34F8F70BD41
:1048700070B540F2F030C2F2000004684CF218004B
:10488000C4F21B000568002C056016D0012600BF8D
:10489000A08910F4E05F0DD000F00F01022909D1CA
:1048A000C0F3041006FA00F028421FBF6168002917
:1048B000A06888472468002CEAD1BFF34F8F70BDF1
:1048C00070B540F2F030C2F2000004684CF21800FB
:1048D000C4F21B000568002C056016D0012600BF3D
:1048E000A08910F4E05F0DD000F00F01022909D17A
:1048F000C0F3041006FA00F028421FBF61680029C7
:10490000A06888472468002CEAD1BFF34F8F70BDA0
:1049100070B540F2F030C2F2000004681820C4F212
:104920001C000568002C056015D00126A08910F434
:10493000E05F0DD000F00F01032909D1C0F304108E
:1049400006FA00F028421FBF61680029A068884766
:104950002468002CEAD1BFF34F8F70BD00BF00BFA9
:1049600070B540F2F030C2F2000004681820C4F2C2
:104970001C000568002C056015D00126A08910F4E4
:10498000E05F0DD000F00F01032909D1C0F304103E
:1049900006FA00F028421FBF61680029A068884716
:1049A0002468002CEAD1BFF34F8F70BD00BF00BF59
:1049B00070B540F2F030C2F2000004681820C4F272
:1049C0000C000568002C056015D00126A08910F4A4
:1049D000E05F0DD000F00F01052909D1C0F30410EC
:1049E00006FA00F028421FBF61680029A0688847C6
:1049F0002468002CEAD1BFF34F8F70BD00BF00BF09
:104A000070B540F2F030C2F2000004681820C4F221
:104A10000C000568002C056015D00126A08910F453
:104A2000E05F0DD000F00F01052909D1C0F304109B
:104A300006FA00F028421FBF61680029A068884775
:104A40002468002CEAD1BFF34F8F70BD00BF00BFB8
:104A5000B0B5002800F0EA80002900F0F0808B78E3
:104A600043F00402042A08BFB0BD40F2F032C2F2A3
:104A70000002D2F800E0BEF1000F10D091F803C0A0
:104A8000724600BF948904F00F059D4204BFC4F331
:104A90000414644500F0C5801268002AF2D1EFF3D7
:104AA000108C72B6BEF1000F1CD0DEF80030EBB1F6
:104AB000864514D0D3F800E0BEF1000F00F0B280BC
:104AC00083420CD0DEF8002082B1864507D0D2F8B0
:104AD00000E0BEF1000F00F0A7808242E5D18CF328
:104AE0001088B0BD40F2F03EC2F2000ECEF80000D9
:104AF0004FF0000E4EF2FF14C0F800E08CF3108867
:104B00004FF0000CCA7802F01F03828922F4F87279
:104B100042EA031282818D7865F30302828122408A
:104B20000C7804F0010442EA4422828105F00F006F
:104B30000A78C0B2012A04BF91F801E04FF0010CDD
:104B40004CF29461C6F2020151F8200047F6FF7161
:104B5000C4F21B0188420CDD48F20001C4F21B01C3
:104B600088420ED00021C4F21C0188420BD10321DF
:104B700010E0D0B30021C4F20C01884268D10521B5
:104B800008E0012106E04CF20001C4F21B0188425A
:104B90005ED1022131A2032432F9112002F01F015B
:104BA000120A04FA01F14CF26804C4F20F0404EB97
:104BB000820200BF52E8004F0C4342E80045002D3E
:104BC0001FBF52E8004F0C4342E80045002D0CD0B7
:104BD00052E8004F0C4342E8004535B152E8004F1F
:104BE0000C4342E80045002DE4D1D9B20122BCF1CA
:104BF000000F02FA01F2416921EA020141616FEA04
:104C0000020108D08423BEF1000F08BF8823C250E0
:104C100043681A4301E042680A404260C269114099
:104C2000C161B0BD9E4661E796465FE742F62661E8
:104C30001EA04FF48C72C6F204010EF065FB42F622
:104C4000266117A040F21912C6F204010EF05CFBB7
:104C500005A00EA13C220EF057FB00BFFFFF1A017A
:104C60001E001A02FFFF1E01696E7374616E636598
:104C7000203C2041525241595F53495A4528735FA5
:104C80006770696F426173657329000064726976A9
:104C90006572732F66736C5F6770696F2E630000B7
:104CA00070696E436F6E6669670000006770696FB8
:104CB00048616E646C65000070B5002800F0B98032
:104CC000002900F0C280002A00F0CB8000784CF26E
:104CD000D863C6F2020353F82050AC6914F4006F95
:104CE0000DD1E0064FD405F1280005F1140305F1BC
:104CF0001C0C05F12C0E013AA4074DD508E005F176
:104D0000280005F1140305F11C0C05F12C0E013AE5
:104D1000DEF8004014F0E06F29D11C68056814F437
:104D2000002F74D1E50303D40025A60311D419E0A4
:104D30001D6805F0785545F480351D601D680668CE
:104D400015F4803F40F21A5508BF4FF4A465A6033E
:104D500008D51D6805F0785545F400351D601D68BF
:104D600005680125640358D4002DD1D05DE0DCF83E
:104D70000040002A04F07F0401F8014BA2F1010475
:104D80002246C5D140E005F1280005F1140305F1E4
:104D90001C0C05F12C0E013ADEF8004014F0E06F17
:104DA00029D11C68056814F4002F30D1E50303D421
:104DB0000025A60311D419E01D6805F0785545F4C7
:104DC00080351D601D68066815F4803F40F21A5555
:104DD00008BF4FF4A465A60308D51D6805F07855F3
:104DE00045F400351D601D6805680125640314D471
:104DF000002DD1D019E0DCF80040002A01F8014B69
:104E0000A2F101042246C7D1002080B270BD19680A
:104E100001F0785141F4002104E0196801F0785163
:104E200041F4802119601968006842F6AF7080B2C1
:104E300070BD43F2F72042F6496140F20A32C6F2F1
:104E40000400C6F204010EF05FFA42F6555042F635
:104E5000496140F20B32C6F20400C6F204010EF0C2
:104E600053FA42F64B4042F649614FF44372C6F2A0
:104E70000400C6F204010EF047FA00BF00BF00BFF5
:104E800088B3E1B3002A46D000784CF2D863C6F26A
:104E9000020353F8200000BF436913F4000F04BF5E
:104EA000436913F4000F07D1436913F4000F03D1D2
:104EB000436913F4000FEFD011F8013B013AC361CD
:104EC000EAD1416911F4800F0BD1416911F4800FCF
:104ED00004BF416911F4800F03D1416911F4800FBF
:104EE000EFD00020704743F2F72042F6496140F2CC
:104EF0001932C6F20400C6F204010EF005FA42F6B9
:104F0000555042F6496140F21A32C6F20400C6F228
:104F100004010EF0F9F942F64B4042F6496140F2C5
:104F20001B32C6F20400C6F204010EF0EDF900BF18
:104F30004EF6145C48F2000100224CF20403CEF25B
:104F4000000CC4F20B01C4F20D02C4F20B03DCF836
:104F5000740040F47000CCF87400088920F001005F
:104F60000881108920F001001081088810F0040FDA
:104F70001EBF088820F004000880108810F0040F7D
:104F80001EBF108820F0040010804FF48042885823
:104F900010F4005F4CF2205006BF18604DF6281048
:104FA000CDF6281018604FF6FF705860885820F032
:104FB000A00040F0200088504EF21000CEF2000019
:104FC000016811F0010F1EBF016821F001010160AD
:104FD000DCF8000010F4003F04BFDCF8000010F41F
:104FE000003F00D07047BFF34F8F0020BFF36F8F9B
:104FF000CCF83C02BFF34F8FBFF36F8FDCF800009B
:1050000040F40030CCF80000BFF34F8FBFF36F8F38
:10501000704700BF00BF00BF48F27001C4F20D012D
:10502000086810F4005F04BF00207047086810F49F
:10503000404F01D000200EE0D1F8000210F0100F18
:1050400005D140F2F430C2F20000006803E043F200
:105050000060C0F26E100A6812F4803F18BF7047FB
:10506000D1F800C00B690A6A00EE100AB8EE400BD6
:1050700001EE103A0CF07F03B8EE411B20EE010B5D
:1050800001EE102AB8EE411B80EE010BBCEEC00B06
:1050900010EE102A03FB00200A6802F4C012B2F5D9
:1050A000801F06D0B2F5002F02D09AB9800800E028
:1050B0004008D1F8002148F20001C0F280010A4006
:1050C000B2F5004F04D08A4204BF80087047704791
:1050D0004008704743F2AA3003A14FF45472C6F25D
:1050E00004000EF011F900BF647269766572732FC7
:1050F00066736C5F636C6F636B2E630000BF00BFF1
:10510000202948D2002A51D0D30601BF00EB41101C
:1051100011684FF48053C15001BF918841F20403DC
:10512000C152D18801BF41F20603C152916841F2D8
:10513000080301BFC150D16841F20C03C15001BF47
:10514000116941F21003C150918A01BF41F2140369
:10515000C152D18A41F2160301BFC152916941F295
:105160001803C15001BF41F21C0100234352938B2D
:1051700001BF4352D18B41F21E02815208BF7047DA
:1051800042F6F83042F679515C22C6F20400C6F2CB
:1051900004010EF0B9F842F69F0042F679515A2206
:1051A000C6F20400C6F204010EF0AEF842F6FC00AE
:1051B00042F679515B22C6F20400C6F204010EF0F9
:1051C000A3F800BF00BF00BF10B5B8B3C20641D1FD
:1051D00000294BD091F808C00C684FF0010E0EFA70
:1051E0000CF2013A22424DD14A7A0EFA02F3A3F1AF
:1051F000010E4B681EEA030F01BF0460036142EA1F
:105200000C2240F2077301BF1A40C2804A89828093
:1052100001BF8A8982820A69826001BF898AC1824C
:10522000C18310BD42F6B13042F6795140F2F3121B
:10523000C6F20400C6F204010EF066F842F6FC0065
:1052400042F679514FF4F772C6F20400C6F2040137
:105250000EF05AF842F6F83042F6795140F2EF1269
:10526000C6F20400C6F204010EF04EF842F6171022
:1052700042F679514FF4F872C6F20400C6F2040106
:105280000EF042F842F66C3042F679514FF4F97262
:10529000C6F20400C6F204010EF036F800BF00BFEB
:1052A0002DE9F04381B0002800F08880002900F04B
:1052B0009180DDF82080B8F1000F00F0948062F05A
:1052C0001F07A2F1010E1EEA070F40F09580099F0B
:1052D00067F01F05A7F1010C1CEA050F40F098804C
:1052E000DDE90B94B4FBF9F606FB09F5A54240F0A5
:1052F0009B80B1FBF2F404FB1212002A40F09D8067
:10530000B8FBF7F202FB1782002A40F09F80C0E949
:10531000001800220146BEF11F0FC0E903294661B3
:1053200041F8082F00F23E80DFE80EF017103C1421
:105330003C3C3C123C3C3C3C3C3C3C3C3C3C3C3CD7
:105340003C3C3C3C3C3C3C3C3C3C3C16012204E0AC
:10535000032202E0022200E00522BCF11F0F0A70C6
:1053600020D80021DFE80CF017101E141E1E1E129C
:105370001E1E1E1E1E1E1E1E1E1E1E1E1E1E1E1E4D
:105380001E1E1E1E1E1E1E16012104E0032102E029
:10539000022100E005210A9A82814172438101B015
:1053A000BDE8F08343F2AA3042F6795140F2CD32A3
:1053B000C6F20400C6F204010DF0A6FF42F6171073
:1053C00042F679514FF47C72C6F20400C6F2040131
:1053D0000DF09AFF42F679513FA040F2F132C6F249
:1053E00004010DF091FF42F6795136A040F2F232FD
:1053F000C6F204010DF088FF42F2800042F67951B6
:1054000040F2F332C6F20400C6F204010DF07CFF54
:1054100042F2CE0042F679514FF47D72C6F204009A
:10542000C6F204010DF070FF42F679510DA040F272
:10543000F532C6F204010DF067FF42F6795114A06F
:1054400040F2F632C6F204010DF05EFF42F616405D
:1054500042F6795140F2F732C6F20400C6F2040176
:105460000DF052FF287472616E7366657242797432
:1054700065732025206279746573456163685265A0
:10548000717565737429203D3D2030550000000082
:1054900028282875696E7433325F74292875696EFF
:1054A0007433325F74202A297372634164647229F1
:1054B000202520737263576964746829203D3D205C
:1054C00030550000646573744164647220213D208E
:1054D0004E554C4C000000007372634164647220AE
:1054E000213D204E554C4C002DE9F0470446002844
:1054F00000F0C780002900F0D08094F81080D4E933
:105500000290002855D0EFF3108072B694F9132062
:1055100094F914309A4261DA94F91270E27C013203
:105520007D1CFEB2E274EBB2227D9342324608BF8C
:105530000025002EA57480F3108808BF227DE06846
:1055400000EB4710002800F0B480C30640F0BD8097
:10555000A2F1010A0022082302608280C2808260D8
:10556000C26002618282C28282618383C283FFF74A
:105570002BFEE1685FFA8AF39E4201EB4712908BA3
:1055800040F00200908368B201EB401090612BD193
:10559000217CA068FFF7B4FD94F91500B0F1FF3F3E
:1055A0004CDC217CA06801F01F01C1760020BDE821
:1055B000F08709EB481041F21C02825A12F0400FAA
:1055C00008D141F2160241F21E03825AC35A5A40D0
:1055D000520436D041F2ED30BDE8F08780F31088F8
:1055E00041F2EC30BDE8F0874FFA8AF341F2180738
:1055F00001EB43118B8B23F0180343F010038B83D3
:1056000009EB4811CB19CF59974214D141F21C072D
:10561000CE5B46F00806CE53CE5B46F01006CE5366
:10562000CE5B16F0100F24D11968814204BF002010
:10563000BDE8F087ACE718680028A9D00020BDE8D5
:10564000F087B8F1200F4CD200F58050FFF7BCFD79
:10565000207CA16801EB401041F21C01425A42F04B
:1056600008024252425A42F0020242520020BDE871
:10567000F087C819018821F0080101800020BDE8E9
:10568000F08742F6081042F6795140F25442C6F2D1
:105690000400C6F204010DF037FE42F6171042F680
:1056A000795140F25542C6F20400C6F204010DF0F1
:1056B0002BFE42F6FC0042F6795140F2BF12C6F2D0
:1056C0000400C6F204010DF01FFE42F6F83042F667
:1056D00079514FF4E072C6F20400C6F204010DF0F5
:1056E00013FE42F69F0042F67951E622C6F204000C
:1056F000C6F204010DF008FEF0B581B004460028A2
:1057000062D0A168227C41F21C05CA7701EB4210ED
:10571000435B03F08007E368E3B141F218060544F8
:10572000002F8059A0EB03002B884FEA501003D1C3
:10573000002808BF207D0138667CC5B2B5421AD169
:1057400013F01001E17C227D18BF914220D194F921
:1057500013301EE0D4F800C0BCF1000F32D06168F5
:10576000002F20464FF0000318BF01273A4601B032
:10577000BDE8F040604794F91130EB1AB3F1FF3FF8
:10578000DCBF94F914603344002F18BF0A7700E09F
:1057900000236074E07CC01AE074256835B161684C
:1057A000002F3A46204618BF0122A84757B1207C57
:1057B000A16841F21C0301EB4012D25A12F0100F03
:1057C00018BF087701B0F0BD42F6081042F67951D3
:1057D0004FF4AF62C6F20400C6F204010DF094FD6E
:1057E000B0B549F21C0448F22405C4F20E04C4F218
:1057F0000E052088A868286810F0010F06D040F236
:10580000FC30C2F200000068FFF776FFB4F8000237
:10581000A868286810F4803F06D040F2FC30C2F23D
:105820000000006CFFF768FFBFF34F8FB0BD00BFF3
:10583000B0B549F23C0448F22405C4F20E04C4F2A7
:105840000E052088A868286810F0020F06D040F2E4
:10585000FC30C2F200004068FFF74EFFB4F80002CF
:10586000A868286810F4003F06D040F2FC30C2F26D
:105870000000406CFFF740FFBFF34F8FB0BD00BF8B
:10588000B0B549F25C0448F22405C4F20E04C4F237
:105890000E052088A868286810F0040F06D040F292
:1058A000FC30C2F200008068FFF726FFB4F8000267
:1058B000A868286810F4802F06D040F2FC30C2F2AD
:1058C0000000806CFFF718FFBFF34F8FB0BD00BF23
:1058D000B0B549F27C0448F22405C4F20E04C4F2C7
:1058E0000E052088A868286810F0080F06D040F23E
:1058F000FC30C2F20000C068FFF7FEFEB4F8000200
:10590000A868286810F4002F06D040F2FC30C2F2DC
:105910000000C06CFFF7F0FEBFF34F8FB0BD00BFBB
:10592000B0B549F29C0448F22405C4F20E04C4F256
:105930000E052088A868286810F0100F06D040F2E5
:10594000FC30C2F200000069FFF7D6FEB4F8000296
:10595000A868286810F4801F06D040F2FC30C2F21C
:105960000000006DFFF7C8FEBFF34F8FB0BD00BF52
:10597000B0B549F2BC0448F22405C4F20E04C4F2E6
:105980000E052088A868286810F0200F06D040F285
:10599000FC30C2F200004069FFF7AEFEB4F800022E
:1059A000A868286810F4001F06D040F2FC30C2F24C
:1059B0000000406DFFF7A0FEBFF34F8FB0BD00BFEA
:1059C000B0B549F2DC0448F22405C4F20E04C4F276
:1059D0000E052088A868286810F0400F06D040F215
:1059E000FC30C2F200008069FFF786FEB4F80002C6
:1059F000A868286810F4800F06D040F2FC30C2F28C
:105A00000000806DFFF778FEBFF34F8FB0BD00BF81
:105A1000B0B549F2FC0448F22405C4F20E04C4F205
:105A20000E052088A868286810F0800F06D040F284
:105A3000FC30C2F20000C069FFF75EFEB4F800025D
:105A4000A868286810F4000F06D040F2FC30C2F2BB
:105A50000000C06DFFF750FEBFF34F8FB0BD00BF19
:105A6000B0B549F21C1448F22405C4F20E04C4F285
:105A70000E052088A868286810F4807F06D040F2C0
:105A8000FC30C2F20000006AFFF736FEB4F80002F4
:105A9000A868286810F0807F06D040F2FC30C2F27F
:105AA0000000006EFFF728FEBFF34F8FB0BD00BFB0
:105AB000B0B549F23C1448F22405C4F20E04C4F215
:105AC0000E052088A868286810F4007F06D040F2F0
:105AD000FC30C2F20000406AFFF70EFEB4F800028C
:105AE000A868286810F0007F06D040F2FC30C2F2AF
:105AF0000000406EFFF700FEBFF34F8FB0BD00BF48
:105B0000B0B549F25C1448F22405C4F20E04C4F2A4
:105B10000E052088A868286810F4806F06D040F22F
:105B2000FC30C2F20000806AFFF7E6FDB4F8000224
:105B3000A868286810F0806F06D040F2FC30C2F2EE
:105B40000000806EFFF7D8FDBFF34F8FB0BD00BFE0
:105B5000B0B549F27C1448F22405C4F20E04C4F234
:105B60000E052088A868286810F4006F06D040F25F
:105B7000FC30C2F20000C06AFFF7BEFDB4F80002BC
:105B8000A868286810F0006F06D040F2FC30C2F21E
:105B90000000C06EFFF7B0FDBFF34F8FB0BD00BF78
:105BA000B0B549F29C1448F22405C4F20E04C4F2C4
:105BB0000E052088A868286810F4805F06D040F29F
:105BC000FC30C2F20000006BFFF796FDB4F8000253
:105BD000A868286810F0805F06D040F2FC30C2F25E
:105BE0000000006FFFF788FDBFF34F8FB0BD00BF0F
:105BF000B0B549F2BC1448F22405C4F20E04C4F254
:105C00000E052088A868286810F4005F06D040F2CE
:105C1000FC30C2F20000406BFFF76EFDB4F80002EA
:105C2000A868286810F0005F06D040F2FC30C2F28D
:105C30000000406FFFF760FDBFF34F8FB0BD00BFA6
:105C4000B0B549F2DC1448F22405C4F20E04C4F2E3
:105C50000E052088A868286810F4804F06D040F20E
:105C6000FC30C2F20000806BFFF746FDB4F8000282
:105C7000A868286810F0804F06D040F2FC30C2F2CD
:105C80000000806FFFF738FDBFF34F8FB0BD00BF3E
:105C9000B0B549F2FC1448F22405C4F20E04C4F273
:105CA0000E052088A868286810F4004F06D040F23E
:105CB000FC30C2F20000C06BFFF71EFDB4F800021A
:105CC000A8682868B0F1FF3F02DDBFF34F8FB0BD79
:105CD00040F2FC30C2F20000C06FFFF70DFDBFF3D1
:105CE0004F8FB0BD00BF00BF80B540F2873C00BF02
:105CF000C36D416903F0070311F47052C3F1040E40
:105D00000AD08B040ED40B050FD44B0519D4C9044B
:105D10000CEAE1710BE000BF002151EA0E02E7D06E
:105D20001BE000BF40F28A3101E040F2893142615C
:105D3000426A026942F44072026151EA0E02D7D00F
:105D40000BE04261416A11F4007F02D140F28631DA
:105D5000EFE7002151EA0E02CAD081BB4FF4007177
:105D600040F2012E40F2873C016600BF436913F404
:105D700070521DD0990407D4190508D459050FD4C1
:105D8000D9040CEAE17104E040F28A3101E040F20A
:105D900089314261426A026942F44072026108E05C
:105DA0004261416A11F4007F02D140F28631F2E78C
:105DB000002103EA0E02724503D00029D6D008461E
:105DC00080BD4FF400724261084680BD00BF00BF35
:105DD0001020C4F23F000168D0F80001BFF34F8FDC
:105DE000704700BF00BF00BF44F21000C4F23F0084
:105DF0000168D0F80001BFF34F8F704700BF00BFAC
:105E000048F21000C4F23F000168D0F80001BFF36F
:105E10004F8F704700BF00BF4CF21000C4F23F002C
:105E20000168D0F80001BFF34F8F704700BF00BF7B
:105E300080B544F200000021C4F21800FCF760FBBA
:105E4000BFF34F8F80BD00BF80B548F20000002136
:105E5000C4F21800FCF754FBBFF34F8F80BD00BFA6
:105E600080B54CF200000021C4F21800FCF748FB9A
:105E7000BFF34F8F80BD00BF80B500200021C4F26A
:105E80001900FCF73DFBBFF34F8F80BD00BF00BF83
:105E900080B544F200000021C4F21900FCF730FB89
:105EA000BFF34F8F80BD00BF80B548F200000021D6
:105EB000C4F21900FCF724FBBFF34F8F80BD00BF75
:105EC00080B54CF200000021C4F21900FCF718FB69
:105ED000BFF34F8F80BD00BF80B500200021C4F20A
:105EE0001A00FCF70DFBBFF34F8F80BD00BF00BF52
:105EF000BFF34F8F704700BFBFF34F8F704700BF96
:105F000042F6E25103A040F6E432C6F204010DF07D
:105F1000FBF900BF735F73616948616E646C655B18
:105F2000335D5B305D20213D204E554C4C00000020
:105F300042F6E25103A040F6EC32C6F204010DF045
:105F4000E3F900BF735F73616948616E646C655B00
:105F5000335D5B315D20213D204E554C4C000000EF
:105F6000F0B581B04C6806461F460D46E068012832
:105F700002D140F26C7258E094F8EA00C11994F82A
:105F8000EA00052904EBC00000F1B80010D394F832
:105F9000EA102022A2EBC101FCF740FE94F8EA00CF
:105FA0006FF01F01384401EBC00104F1B80000E0BC
:105FB000F900FCF733FE94F8EA00384400F00300DF
:105FC00084F8EA0094F8EA0004EBC000D0F8B800C6
:105FD00010B140F26C7228E028684FF6FE72CFF6DE
:105FE000E372816811408160317CB06801F01F026A
:105FF00000EB4111827641F21C020020885241F2EE
:106000001802885041F216028852317CB26802EBC5
:10601000411141F21E02885240F27172F16800296A
:106020001FBF01217174B074F074D4F810C0BCF1BA
:10603000000F04BF01B0F0BD63692868214601B0BC
:10604000BDE8F040604700BFF0B581B04C6806463F
:106050001F460D46E068012802D140F26D725AE0F9
:1060600094F8EA00C11994F8EA00052904EBC0008D
:1060700000F1B80010D394F8EA102022A2EBC1017D
:10608000FCF7CCFD94F8EA006FF01F01384401EBF7
:10609000C00104F1B80000E0F900FCF7BFFD94F87E
:1060A000EA00384400F0030084F8EA0094F8EA00BB
:1060B00004EBC000D0F8B80010B140F26D722AE0D5
:1060C00028684FF6FE72CFF6E372D0F888101140C0
:1060D000C0F88810317CB06801F01F0200EB41115C
:1060E000827641F21C020020885241F21802885048
:1060F00041F216028852317CB26802EB411141F242
:106100001E02885240F27272F16800291FBF0121FD
:106110007174B074F074D4F810C0BCF1000F04BFF7
:1061200001B0F0BD63692868214601B0BDE8F040C8
:10613000604700BF00BF00BF2DE9F04381B00029D8
:1061400018BF002A0BD141F6B16042F6625140F20D
:106150002312C6F20400C6F204010DF0D5F844F291
:1061600000034CF20005C4F23803C4F2380598422B
:106170001EBF48F20007C4F23807B84240F0A981B8
:106180004FF0407784468760876827F08077876084
:1061900000274CF8107FCCF80470CCF80870CCF8CD
:1061A0000C70CCF8507092F81BE0BEF1000F05D1D6
:1061B000977E012606FA07FE82F81BE0A84248F205
:1061C00000054FF0FF34C4F2380508BF0124A8428F
:1061D0002CD0984240F01781CEF340040EF001031A
:1061E0000EF004060EF00805CEF3C0071EF0070FF0
:1061F000234408BF002F03EB960303EBD5085FFA97
:106200008EF306D0002E18BF0224002D18BF0324E1
:106210001477DC0717D19C0700F16A815C0700F155
:106220006C811B0744BF032696760EE05FEACE73AF
:106230004FF000081CBF82F81C804FF0010813B912
:1062400082F81D800BE0002696765FFA88F382F8CC
:106250001D80022B22BF836923F040638361436961
:106260000EF00F0723F470234361436943EA0743A9
:1062700043616346577E3FB1012F09D1036943F063
:106280008043036100F190031F6827F080471F607F
:1062900092F818E0DCF800304EF00206022E14D11D
:1062A000557C947CD77C167C23F07C5343EA0573A1
:1062B00004F0010507F0030743EA456343EA467328
:1062C00043EA876343F0807306E0977C23F0807392
:1062D00007F0010743EA476303614FF0F8544FF4B6
:1062E000F81C83699778D67855791F361F3704EAEA
:1062F00006660CEA0747374305F11F064FF4F855C9
:1063000005EA062637434FF6CF76C761CEF6E0762C
:1063100097680766002F06F180579479557892F8B0
:10632000009018BF33403B401F3405F0010743EA9B
:1063300007130CEA044409F00107234343EA471317
:106340008361137B5F1E202F80F0D9808769AEF1B7
:10635000030541F60F761F33B5FA85F56D09B7438E
:10636000BEFA8EF676092E43D57B63F30C2646EAF9
:106370000703967B577B06F03F0607F01F0743EAAB
:10638000860343EAC70305F0010743EA4703836135
:10639000D37D5F1EFFB2202F24BF1023D3758669E3
:1063A000577D056E26F0E056002D67F39B6604BF0F
:1063B000157D46EA0576957D65F319668661C668A2
:1063C00063F304065FFA88F3022BC66004D307F078
:1063D000FE03022B40F09F801379DF08182B08BFC3
:1063E00004274F71937E0B72D37E81F807808B71E7
:1063F000436923F470234361D07DC0F120004872CB
:1064000001B0BDE8F0835FFA8EF500234FF001097B
:106410004FF00008002700BF09FA03F32B4247F0B2
:106420000103DEB21CBF177708F10108B44222D97C
:1064300009FA06F62E421CBF137708F1010847F04F
:106440000203DEB2B44216D909FA06F62E421CBF88
:10645000137708F1010847F00303DEB2B4420AD90A
:1064600009FA06F604372E421CBF137708F101081B
:10647000FBB29C42D0D800264FF00109002709FA50
:1064800006F32B4236D147F00106F3B29C427FF669
:10649000DCAE09FA03F32B427FF4D6AE47F00206D6
:1064A000F3B29C427FF6D1AE09FA03F32B427FF49C
:1064B000CBAE47F00306F3B29C427FF6C6AE09FAB4
:1064C00003F32B427FF4C0AE0437FEB2B442D6D8F9
:1064D000BBE6A8423FF454AE42F2DC4042F6E25141
:1064E00040F26742C6F20400C6F204010CF00CFF51
:1064F0000126A9E63E469776A7E60226A4E641F6DF
:10650000BE7042F6E25140F2F632C6F20400C6F224
:1065100004010CF0F9FE41F6A95042F6625140F236
:106520002D12C6F20400C6F204010CF0EDFE00BF0D
:106530002DE9F04381B0002918BF002A0BD141F6A4
:10654000B16042F662514FF4AE72C6F20400C6F278
:1065500004010CF0D9FE44F200034CF20005C4F231
:106560003803C4F2380598421EBF48F20007C4F24F
:106570003807B84240F0B3814FF040778446C0F806
:106580008870D0F8887027F08077C0F8887000276E
:106590004CF8907FCCF80470CCF80870CCF80C70F4
:1065A000CCF8507092F81BE0BEF1000F05D1977E39
:1065B000012606FA07FE82F81BE0A84248F2000511
:1065C0004FF0FF34C4F2380508BF0124A8422CD094
:1065D000984240F01E81CEF340040EF001030EF00D
:1065E00004060EF00805CEF3C0071EF0070F234483
:1065F00008BF002F03EB960303EBD5085FFA8EF379
:1066000006D0002E18BF0224002D18BF03241477D3
:10661000DC0717D19C0700F171815C0700F17381E1
:106620001B0744BF032696760EE05FEACE734FF059
:1066300000081CBF82F81C804FF0010813B982F8D3
:106640001D800DE0002696765FFA88F382F81D80A3
:10665000022B22BFD0F8983023F04063C0F8983066
:10666000D0F894300EF00F0723F47023C0F8943064
:10667000D0F8943043EA0743C0F894306346577E1D
:106680004FB1012F0BD1D0F8903043F08043C0F8C8
:10669000903000F110031F6827F080471F6092F8C8
:1066A00018E0DCF800304EF00206022E15D1557CC1
:1066B000947CD67C92F810C023F07C5343EA057397
:1066C00004F0010506F0030643EA456343EA4C7310
:1066D00043EA866343F0807306E0967C23F0807380
:1066E00006F0010643EA4663C0F890304FF0F857D1
:1066F000D0F89830D578967854791F351F3607EA48
:1067000005674FF4F81505EA0646374304F11F06FE
:106710004FF4F85404EA06263743C0F89C70976893
:10672000C0F8E0704FF6EF77CFF6E07796793B4010
:10673000577867F3041306F11F0705EA07473B4341
:10674000C0F89830137B5F1E202F80F0DE80D0F8D9
:106750009870AEF1030541F60F761F33B5FA85F553
:106760006D09B743BEFA8EF676092E43D57B63F3E7
:106770000C2646EA0703967B577B06F03F0607F098
:106780001F0743EA860343EAC70305F0010743EA0C
:106790004703C0F89830D37D5F1EFFB2202F24BF7F
:1067A0001023D375D0F89860577D157D947D26F021
:1067B000F85667F39B6646EA057604F0030546EA59
:1067C0000566C0F89860D0F88C6063F304065FFA41
:1067D00088F3022BC0F88C6004D347F00203032B2C
:1067E00040F09F801379DF08182B08BF04274F71F2
:1067F000937E0B72D37E81F807808B71D0F8943032
:1068000023F47023C0F89430D07D487201B0BDE805
:10681000F0835FFA8EF500234FF001094FF0000876
:10682000002700BF09FA03F32B4247F00103DEB251
:106830001CBF177708F10108B44222D909FA06F6FD
:106840002E421CBF137708F1010847F00203DEB2A5
:10685000B44216D909FA06F62E421CBF137708F186
:10686000010847F00303DEB2B4420AD909FA06F67A
:1068700004372E421CBF137708F10108FBB29C427B
:10688000D0D800264FF00109002709FA06F32B4261
:1068900036D147F00106F3B29C427FF6D5AE09FA35
:1068A00003F32B427FF4CFAE47F00206F3B29C42D3
:1068B0007FF6CAAE09FA03F32B427FF4C4AE47F069
:1068C0000306F3B29C427FF6BFAE09FA03F32B42F4
:1068D0007FF4B9AE0437FEB2B442D6D8B4E6A842CB
:1068E0003FF44AAE42F2DC4042F6E25140F2ED4261
:1068F000C6F20400C6F204010CF006FD0126A2E671
:106900003E469776A0E602269DE641F6707042F676
:10691000E25140F21342C6F20400C6F204010CF048
:10692000F3FC41F6D44042F662514FF4B372C6F222
:106930000400C6F204010CF0E7FC00BF00BF00BF7A
:106940002DE9F0438BB0002800F001810021CDE952
:106950000911CDE90711CDE9051104214668002E82
:106960001CBF0568002D03D108460BB0BDE8F083BD
:1069700040F26407C2F200077C79397A97F8E9207F
:1069800007EBC202D2F8B82012B14FF4EE61EBE788
:1069900044F208084FF0000C07F1B802C4F23808BE
:1069A000C7F80CC008EB810101F1180397F8E91052
:1069B00007EB8101C1F8D86097F8E91042F831502F
:1069C000416897F8E95002EBC502516097F8E8205A
:1069D00097F8E9100131002A01F0030187F8E91066
:1069E00001683AD04068720865000DF114098DE81D
:1069F000181013B22246CDE903504846FEF750FC6A
:106A000007F13800494620F01F052846FEF7DCFB59
:106A1000002D00F0A8804FF6FE704FF600412A4688
:106A2000C0F20F00C3F6FF713040201A01EA802047
:106A3000A9686FF39F21084340F00040A860A88B2D
:106A400040F00200A883A88B40F00800A8833868B3
:106A5000017C8068FEF754FB0CE07A7A40688DE890
:106A60001810234612FB04F2CDE9032005A82246A4
:106A7000FEF716FC787A7979484305A938713868A9
:106A8000FEF732FD10B14FF4EE616DE73868002873
:106A900075D0C16811B3417D41F080014175017C21
:106AA000826802EB411241F218015158D9B1EFF35B
:106AB000108172B601258368DE68007C854035420E
:106AC00009D141F21C06925B02F09002802A1CBFA1
:106AD00000F01F00D87681F3108804E08168007C04
:106AE00000F01F00C876D8F800004FF6FE71CFF610
:106AF000E371084040F00100C8F800004FF6FF7055
:106B0000D8F80810C7F6E37011F0804F1FBFD8F80F
:106B10008010014041F00041C8F88010D8F8001002
:106B20000840012140F00040C8F80000D8F80000FB
:106B300061F39440C8F80000B879D8F80C1000F060
:106B40000F0041EA00400021C8F80C000CE741F6B4
:106B5000D96042F6625140F2A112C6F20400C6F2B8
:106B600004010CF0D1FB42F6FC0042F6795140F2F0
:106B70002B22C6F20400C6F204010CF0C5FB42F65B
:106B8000081042F6795140F20452C6F20400C6F2EF
:106B900004010CF0B9FB00BF2DE9F0438BB00028D5
:106BA00000F001810021CDE90911CDE90711CDE9FE
:106BB000051104214668002E1CBF0268002A03D17B
:106BC00008460BB0BDE8F08340F25017C2F2000750
:106BD0007C79397A97F8E93007EBC303D3F8B830FA
:106BE00013B14FF4EE61EBE7002307F1B80544F26F
:106BF0008808FB60C4F2380897F8E93008EB810197
:106C0000183107EB8303C3F8D86097F8E93045F8EB
:106C10003320426897F8E93005EBC3035A6097F8D0
:106C2000E83097F8E9200132002B02F0030287F8E0
:106C3000E92002683CD04068730865000DF1140932
:106C4000CDE9002422461BB2CDE902350023049091
:106C50004846FEF725FB07F13800494620F01F059E
:106C60002846FEF7B1FA002D00F0A9804FF6FE701D
:106C70004FF600412A46C0F20F00C3F6FF713040C4
:106C8000201A01EA8020A9686FF39F21084340F091
:106C90008040A860A88B40F00200A883A88B40F039
:106CA0000800A8833868017C8068FEF729FA0DE0A7
:106CB0007B7A4068CDE90024224613FB04F3CDE93A
:106CC0000243049005A80023FEF7EAFA787A79795E
:106CD000484305A938713868FEF706FC10B14FF437
:106CE000EE616DE73868002875D0C16811B3417D49
:106CF00041F080014175017C826802EB411241F252
:106D000018015158D9B1EFF3108172B6012583688B
:106D1000DE68007C8540354209D141F21C06925B59
:106D200002F09002802A1CBF00F01F00D87681F389
:106D3000108804E08168007C00F01F00C876D8F855
:106D400000004FF6FE71CFF6E371084040F00100FD
:106D5000C8F80000B879D8F80C1000F00F0041EA2C
:106D60000040C8F80C004FF6FF70D8F80810C7F6BE
:106D7000E37011F0804F1FBF58F8801C014041F0B4
:106D8000004148F8801CD8F800100840012140F06C
:106D90000040C8F80000D8F8000061F394400021DA
:106DA000C8F800000CE741F6D96042F662514FF492
:106DB0000972C6F20400C6F204010CF0A5FA42F60C
:106DC000FC0042F6795140F22B22C6F20400C6F2D2
:106DD00004010CF099FA42F6081042F6795140F29B
:106DE0000452C6F20400C6F204010CF08DFA00BF92
:106DF000B0B50C46002964D021684FF0000E0B7C22
:106E0000D1F808C003F01F020CEB43138CF81A20D2
:106E100041F21C0C41F2180223F80CE043F802E0A6
:106E200041F2160223F802E00A7C8B6803EB42125F
:106E300041F21E0322F803E0CA68002A1FBF0122A4
:106E40004A7481F812E081F813E041694FF6FE724E
:106E5000CFF6E37221F470214161816811408160B5
:106E6000D0F8901011F0804F06D181684FF6FF7274
:106E7000C7F6E372114081608168002907DB8168F1
:106E800041F040718160816821F08071816094F8E7
:106E9000EA000025D02104EBC000C0E92E550220F5
:106EA000E06094F8EA00013000F0030084F8EA00A2
:106EB00004F11800FBF7B2FE84F8E95084F8EA50B8
:106EC000B0BD42F6081042F6625140F2AE32C6F250
:106ED0000400C6F204010CF017FA00BF00BF00BFA7
:106EE000B0B50C4600296ED021684FF0000E0B7C27
:106EF000D1F808C003F01F020CEB43138CF81A20E2
:106F000041F21C0C41F2180223F80CE043F802E0B5
:106F100041F2160223F802E00A7C8B6803EB42126E
:106F200041F21E0322F803E0CA68002A1FBF0122B3
:106F30004A7481F812E081F813E0D0F894104FF60B
:106F4000FE72CFF6E37221F47021C0F89410D0F8ED
:106F500088101140C0F88810016911F0804F08D1E5
:106F6000D0F888104FF6FF72C7F6E3721140C0F8F0
:106F70008810D0F8881000290BDBD0F8881041F079
:106F80004071C0F88810D0F8881021F08071C0F8E6
:106F9000881094F8EA000025D02104EBC000C0E975
:106FA0002E550220E06094F8EA00013000F0030062
:106FB00084F8EA0004F11800FBF730FE84F8E95089
:106FC00084F8EA50B0BD42F6081042F6625140F231
:106FD000C732C6F20400C6F204010CF095F900BFF6
:106FE00010B5002900F08B80002A00F091808A42C1
:106FF00088BF0A46B1FBF2FCBCF5805F03D94FF0B5
:10700000000E704610BDB1FBFCF3934288BF0CF13B
:10701000010CBCF1110F27D34FEA1C134FF4807EF3
:10702000012B05D0BEFBF3F25A43D2F5807224D077
:1070300033B15A1CBEFBF2F45443D4F580741DD016
:107040009A1C012A05D0BEFBF2F45443D4F5807497
:1070500014D0DA1C0433012AE2D0BEFBF2F454430C
:10706000D4F58074DCD109E00122BCF1010F1DD000
:107070001CF00103E64614D118E01A46BCFBF2FEF0
:1070800002FB0EF363450CD20EF1010EBEF1110F9F
:10709000F6D35200B2F5807FF0D94FF0000E704663
:1070A00010BDBEF1000F09D094467246B1FBF2F15B
:1070B0000F321201B1FBFCFED3B203E0B1FBF2FED2
:1070C000002394460CF4FF724FF6F07143EAC212AB
:1070D000C36A23EA01011143C162416A11F0080F3A
:1070E0000BD1416A11F0080F04BF416A11F0080F7B
:1070F00003D1416A11F0080FEFD0704610BD42F67F
:10710000A0510DA040F2DA32C6F204010CF0FCF8F6
:1071100042F6A05103A040F2DB32C6F204010CF0AB
:10712000F3F800BF627573436C6F636B5F487A203E
:10713000213D203055000000737263436C6F636B18
:107140005F487A20213D20305500000000BF00BF7D
:107150002DE9F0410D460446002900F06981206BBD
:10716000A16B01EA000616F0C00F07D0700654BFED
:107170002A69EA6812B1696A204690470120C0F284
:107180000F00064249D06868002800F05D8116F4BF
:10719000702F07D0EF69BFB36B6A2046294641F6CE
:1071A000661230E06868002800F069812769636929
:1071B000D4F818C0417A91B10329C7600FD13A02BF
:1071C000C2601A0242EA176202614FEA0C2242EAE6
:1071D00013624261E269120242EA1C628261C26980
:1071E00052B1082908D8012303FA01F111F4A37F51
:1071F0001CBFC0681042CDD1EF692FB16B6A204629
:10720000294641F66D12B847A06B4FF6FE71CFF6D6
:10721000F0710840A063002068603220C0F2701056
:1072200006423AD02868002800F01781A96828682B
:107230000022C1F27012164204D0807810B941F6D3
:1072400067121BE0B00612D4F00646D430070BD507
:107250002868C078032807D14AF68C50C2F2000093
:1072600000682968C9680860B00705D415E0286877
:10727000C078012840F0858041F66C12EF6967B153
:107280006B6A20462946B847A06B4FF6CD71CEF603
:107290008F610840A06300202860F00504D56A696A
:1072A00012B1696A20469047700704D5AA6912B1E5
:1072B000696A2046904745F20000C0F2004006424D
:1072C00008D02A6A002A00F0D180700102D5696ACC
:1072D000204690472663BDE8F0812B68606CA76C60
:1072E000C0F3074217F0010F40F09D80586810F07E
:1072F00003071EBF0430C01B58609F6847434FEA16
:107300009708B2EB970F05D2A8EB0100904238BF67
:1073100002469046B8F1000F00F08580D3F810E0E7
:10732000A8F1010208F0030C032A0A4616D30EEB5B
:107330008102ACEB080302F108070A4657F8080C73
:10734000043302F10402206257F8040C206238680A
:107350002062786807F110072062EFD1BCF1000FBE
:1073600060D05EF82200BCF1010F20625AD00EEB13
:107370008202BCF1020F506820621CBF906820623C
:1073800050E02B68606CA26C12F0010F4BD15A6870
:10739000C0B212F003071EBF0432D21B5A609F68AE
:1073A00057434FEA9708B0EB970F05D2A8EB0102BD
:1073B000824238BF10468046B8F1000F33D0D3F870
:1073C0000CE0A8F1010008F0030C0328084617D3CD
:1073D0000EEB8100ACEB080300F10807084600BF84
:1073E000226A043300F1040047F8082C226A47F8A7
:1073F000042C226A3A60226A7A6007F11007EFD102
:10740000BCF1000F0ED0226ABCF1010F4EF8202013
:1074100008D0226A0EEB8000BCF1020F42601CBF54
:10742000226A82604144A960F0053FF538AF3BE72E
:1074300042F6081042F6A05140F68812C6F2040047
:10744000C6F204010BF060FF42F6A05114A040F612
:10745000A502C6F204010BF057FF42F6A05116A098
:1074600040F60112C6F204010BF04EFF42F6A051A5
:1074700017A040F64812C6F204010BF045FF42F691
:10748000A05103A040F26B12C6F204010BF03CFFC6
:10749000636F6D6D616E6420213D204E554C4C0034
:1074A00068616E646C652D3E636F6D6D616E642006
:1074B000213D204E554C4C0068616E646C652D3E3C
:1074C0006461746120213D204E554C4C0000000049
:1074D00068616E646C652D3E63616C6C6261636BA8
:1074E0002E526554756E696E6720213D204E554CB5
:1074F0004C00000000BF00BF80B540F2C440C2F2A3
:107500000000016840F20800C2F20000026800209A
:10751000C4F22C009047BFF34F8F80BD00BF00BF67
:1075200080B540F2C040C2F20000016840F208009D
:10753000C2F20000026844F20000C4F22C0090473E
:10754000BFF34F8F80BD00BF2DE9F04F9FB00228E1
:1075500040F0238140F29870C2F2000000780128C8
:1075600008BF04F0A9FD40F2DC4AC2F2000A9AF812
:10757000240020B1DAF8000004F072F916E0DAF81D
:107580001800002800F04787DAF8000003F0D8FF61
:10759000DAF8181008780138C0B201289CBFDAF870
:1075A000000002F079FF01208AF82400DAF81800C0
:1075B000002800F01B87017861B19AF824000028A8
:1075C00000F0E180DAF8000003F0A6F8002840F0AF
:1075D000DA8036E0C168002900F0D58046F2005517
:1075E00044F240274CF2C0644FF47A76C1F6CD5590
:1075F000C0F20F07C0F22D0407E000BFDAF8180050
:10760000C0688047DAF81800C16888470028F5D0BC
:10761000DAF818004168714379B1A1FB0501B9425C
:1076200080F0D9862246002316F04AFD400000462D
:10763000401E0028FCD1DAF81800C06880470028F6
:10764000DCD000208AF8B9028AF8B8029AF8B91298
:1076500049B90122EFF3108172B68AF8B9228AF88B
:10766000B80281F31088DAF8041000291CBF012049
:107670008847DAF808104FF47A7046F20054C1F6E1
:10768000CD544843002904BF41F68020C0F20600D3
:10769000A0B144F24022A0FB0401C0F20F029142CB
:1076A00080F099864CF2C0620023C0F22D0216F0E1
:1076B00007FD40000046401E0028FCD19AF8240037
:1076C000002800F09F86002041F68022CAF834008E
:1076D000C0F20602DAF800100868836A23F0060395
:1076E00083624968FFF77CFCCAF82800DAF81400C6
:1076F00000281CBF0178002903D14FF448100190E5
:107700000CE0DAF800204FF448170197D36D13F01E
:10771000100F18BF13F4445340F0D58101208AF8AC
:10772000B702DAF800502868C16A41F00061C1620E
:107730006FF06301C26A002918BF12F000620CD01A
:10774000C26A12F0006F1CBFC26A12F0006F04D050
:10775000C26A043112F0006FECD116AC242120462D
:10776000FBF75CFA4FF000082846CDE9088408AC26
:10777000214603F055F9A0B1EFF3108072B68AF8F4
:10778000B98280F3108804F097FC40F2DC404FF49B
:107790002F71C2F20000FBF741FA01201FB0BDE8D3
:1077A000F08F16A837254FF0010B00F1080904F1FE
:1077B000080000904FF4D570C9E90088C9E9028833
:1077C000C9E90488C9F8188016AF6FF00806179049
:1077D0000820169009208DF86100CDE9088700BFC8
:1077E000DAF80000214603F01BF928B99DF864007F
:1077F000AA2814D040F20C70002E1CBF01360028BD
:10780000EED1DAF8006038462421FBF707FA30465B
:107810002146CDE9088703F003F950B1ACE7DAF867
:10782000340040F00800CAF83400019840F080406D
:107830000190CDE9148801270098C0E90088C0E9CB
:107840000288C0E90488C0F81880019809902920AE
